{
  "contractName": "FGCertificate",
  "abi": [
    {
      "inputs": [],
      "stateMutability": "nonpayable",
      "type": "constructor"
    },
    {
      "anonymous": false,
      "inputs": [
        {
          "indexed": true,
          "internalType": "address",
          "name": "owner",
          "type": "address"
        },
        {
          "indexed": true,
          "internalType": "address",
          "name": "approved",
          "type": "address"
        },
        {
          "indexed": true,
          "internalType": "uint256",
          "name": "tokenId",
          "type": "uint256"
        }
      ],
      "name": "Approval",
      "type": "event"
    },
    {
      "anonymous": false,
      "inputs": [
        {
          "indexed": true,
          "internalType": "address",
          "name": "owner",
          "type": "address"
        },
        {
          "indexed": true,
          "internalType": "address",
          "name": "operator",
          "type": "address"
        },
        {
          "indexed": false,
          "internalType": "bool",
          "name": "approved",
          "type": "bool"
        }
      ],
      "name": "ApprovalForAll",
      "type": "event"
    },
    {
      "anonymous": false,
      "inputs": [
        {
          "indexed": false,
          "internalType": "uint256",
          "name": "_fromTokenId",
          "type": "uint256"
        },
        {
          "indexed": false,
          "internalType": "uint256",
          "name": "_toTokenId",
          "type": "uint256"
        }
      ],
      "name": "BatchMetadataUpdate",
      "type": "event"
    },
    {
      "anonymous": false,
      "inputs": [
        {
          "indexed": false,
          "internalType": "uint256",
          "name": "_tokenId",
          "type": "uint256"
        }
      ],
      "name": "MetadataUpdate",
      "type": "event"
    },
    {
      "anonymous": false,
      "inputs": [
        {
          "indexed": false,
          "internalType": "address",
          "name": "account",
          "type": "address"
        }
      ],
      "name": "Paused",
      "type": "event"
    },
    {
      "anonymous": false,
      "inputs": [
        {
          "indexed": true,
          "internalType": "bytes32",
          "name": "role",
          "type": "bytes32"
        },
        {
          "indexed": true,
          "internalType": "bytes32",
          "name": "previousAdminRole",
          "type": "bytes32"
        },
        {
          "indexed": true,
          "internalType": "bytes32",
          "name": "newAdminRole",
          "type": "bytes32"
        }
      ],
      "name": "RoleAdminChanged",
      "type": "event"
    },
    {
      "anonymous": false,
      "inputs": [
        {
          "indexed": true,
          "internalType": "bytes32",
          "name": "role",
          "type": "bytes32"
        },
        {
          "indexed": true,
          "internalType": "address",
          "name": "account",
          "type": "address"
        },
        {
          "indexed": true,
          "internalType": "address",
          "name": "sender",
          "type": "address"
        }
      ],
      "name": "RoleGranted",
      "type": "event"
    },
    {
      "anonymous": false,
      "inputs": [
        {
          "indexed": true,
          "internalType": "bytes32",
          "name": "role",
          "type": "bytes32"
        },
        {
          "indexed": true,
          "internalType": "address",
          "name": "account",
          "type": "address"
        },
        {
          "indexed": true,
          "internalType": "address",
          "name": "sender",
          "type": "address"
        }
      ],
      "name": "RoleRevoked",
      "type": "event"
    },
    {
      "anonymous": false,
      "inputs": [
        {
          "indexed": true,
          "internalType": "address",
          "name": "from",
          "type": "address"
        },
        {
          "indexed": true,
          "internalType": "address",
          "name": "to",
          "type": "address"
        },
        {
          "indexed": true,
          "internalType": "uint256",
          "name": "tokenId",
          "type": "uint256"
        }
      ],
      "name": "Transfer",
      "type": "event"
    },
    {
      "anonymous": false,
      "inputs": [
        {
          "indexed": false,
          "internalType": "address",
          "name": "account",
          "type": "address"
        }
      ],
      "name": "Unpaused",
      "type": "event"
    },
    {
      "anonymous": false,
      "inputs": [
        {
          "indexed": false,
          "internalType": "string",
          "name": "_url",
          "type": "string"
        }
      ],
      "name": "mintSuccess",
      "type": "event"
    },
    {
      "inputs": [],
      "name": "BOT_ROLE",
      "outputs": [
        {
          "internalType": "bytes32",
          "name": "",
          "type": "bytes32"
        }
      ],
      "stateMutability": "view",
      "type": "function",
      "constant": true
    },
    {
      "inputs": [],
      "name": "DEFAULT_ADMIN_ROLE",
      "outputs": [
        {
          "internalType": "bytes32",
          "name": "",
          "type": "bytes32"
        }
      ],
      "stateMutability": "view",
      "type": "function",
      "constant": true
    },
    {
      "inputs": [
        {
          "internalType": "address",
          "name": "to",
          "type": "address"
        },
        {
          "internalType": "uint256",
          "name": "tokenId",
          "type": "uint256"
        }
      ],
      "name": "approve",
      "outputs": [],
      "stateMutability": "nonpayable",
      "type": "function"
    },
    {
      "inputs": [
        {
          "internalType": "address",
          "name": "owner",
          "type": "address"
        }
      ],
      "name": "balanceOf",
      "outputs": [
        {
          "internalType": "uint256",
          "name": "",
          "type": "uint256"
        }
      ],
      "stateMutability": "view",
      "type": "function",
      "constant": true
    },
    {
      "inputs": [
        {
          "internalType": "uint256",
          "name": "tokenId",
          "type": "uint256"
        }
      ],
      "name": "burn",
      "outputs": [],
      "stateMutability": "nonpayable",
      "type": "function"
    },
    {
      "inputs": [
        {
          "internalType": "uint256",
          "name": "tokenId",
          "type": "uint256"
        }
      ],
      "name": "getApproved",
      "outputs": [
        {
          "internalType": "address",
          "name": "",
          "type": "address"
        }
      ],
      "stateMutability": "view",
      "type": "function",
      "constant": true
    },
    {
      "inputs": [
        {
          "internalType": "bytes32",
          "name": "role",
          "type": "bytes32"
        }
      ],
      "name": "getRoleAdmin",
      "outputs": [
        {
          "internalType": "bytes32",
          "name": "",
          "type": "bytes32"
        }
      ],
      "stateMutability": "view",
      "type": "function",
      "constant": true
    },
    {
      "inputs": [
        {
          "internalType": "bytes32",
          "name": "role",
          "type": "bytes32"
        },
        {
          "internalType": "address",
          "name": "account",
          "type": "address"
        }
      ],
      "name": "hasRole",
      "outputs": [
        {
          "internalType": "bool",
          "name": "",
          "type": "bool"
        }
      ],
      "stateMutability": "view",
      "type": "function",
      "constant": true
    },
    {
      "inputs": [
        {
          "internalType": "address",
          "name": "owner",
          "type": "address"
        },
        {
          "internalType": "address",
          "name": "operator",
          "type": "address"
        }
      ],
      "name": "isApprovedForAll",
      "outputs": [
        {
          "internalType": "bool",
          "name": "",
          "type": "bool"
        }
      ],
      "stateMutability": "view",
      "type": "function",
      "constant": true
    },
    {
      "inputs": [],
      "name": "name",
      "outputs": [
        {
          "internalType": "string",
          "name": "",
          "type": "string"
        }
      ],
      "stateMutability": "view",
      "type": "function",
      "constant": true
    },
    {
      "inputs": [],
      "name": "owner",
      "outputs": [
        {
          "internalType": "address",
          "name": "",
          "type": "address"
        }
      ],
      "stateMutability": "view",
      "type": "function",
      "constant": true
    },
    {
      "inputs": [
        {
          "internalType": "uint256",
          "name": "tokenId",
          "type": "uint256"
        }
      ],
      "name": "ownerOf",
      "outputs": [
        {
          "internalType": "address",
          "name": "",
          "type": "address"
        }
      ],
      "stateMutability": "view",
      "type": "function",
      "constant": true
    },
    {
      "inputs": [],
      "name": "paused",
      "outputs": [
        {
          "internalType": "bool",
          "name": "",
          "type": "bool"
        }
      ],
      "stateMutability": "view",
      "type": "function",
      "constant": true
    },
    {
      "inputs": [
        {
          "internalType": "bytes32",
          "name": "role",
          "type": "bytes32"
        },
        {
          "internalType": "address",
          "name": "account",
          "type": "address"
        }
      ],
      "name": "renounceRole",
      "outputs": [],
      "stateMutability": "nonpayable",
      "type": "function"
    },
    {
      "inputs": [
        {
          "internalType": "bytes32",
          "name": "role",
          "type": "bytes32"
        },
        {
          "internalType": "address",
          "name": "account",
          "type": "address"
        }
      ],
      "name": "revokeRole",
      "outputs": [],
      "stateMutability": "nonpayable",
      "type": "function"
    },
    {
      "inputs": [
        {
          "internalType": "address",
          "name": "from",
          "type": "address"
        },
        {
          "internalType": "address",
          "name": "to",
          "type": "address"
        },
        {
          "internalType": "uint256",
          "name": "tokenId",
          "type": "uint256"
        }
      ],
      "name": "safeTransferFrom",
      "outputs": [],
      "stateMutability": "nonpayable",
      "type": "function"
    },
    {
      "inputs": [
        {
          "internalType": "address",
          "name": "from",
          "type": "address"
        },
        {
          "internalType": "address",
          "name": "to",
          "type": "address"
        },
        {
          "internalType": "uint256",
          "name": "tokenId",
          "type": "uint256"
        },
        {
          "internalType": "bytes",
          "name": "data",
          "type": "bytes"
        }
      ],
      "name": "safeTransferFrom",
      "outputs": [],
      "stateMutability": "nonpayable",
      "type": "function"
    },
    {
      "inputs": [
        {
          "internalType": "address",
          "name": "operator",
          "type": "address"
        },
        {
          "internalType": "bool",
          "name": "approved",
          "type": "bool"
        }
      ],
      "name": "setApprovalForAll",
      "outputs": [],
      "stateMutability": "nonpayable",
      "type": "function"
    },
    {
      "inputs": [],
      "name": "symbol",
      "outputs": [
        {
          "internalType": "string",
          "name": "",
          "type": "string"
        }
      ],
      "stateMutability": "view",
      "type": "function",
      "constant": true
    },
    {
      "inputs": [
        {
          "internalType": "address",
          "name": "from",
          "type": "address"
        },
        {
          "internalType": "address",
          "name": "to",
          "type": "address"
        },
        {
          "internalType": "uint256",
          "name": "tokenId",
          "type": "uint256"
        }
      ],
      "name": "transferFrom",
      "outputs": [],
      "stateMutability": "nonpayable",
      "type": "function"
    },
    {
      "inputs": [
        {
          "internalType": "bytes32",
          "name": "role",
          "type": "bytes32"
        },
        {
          "internalType": "address",
          "name": "account",
          "type": "address"
        }
      ],
      "name": "grantRole",
      "outputs": [],
      "stateMutability": "nonpayable",
      "type": "function"
    },
    {
      "inputs": [],
      "name": "pause",
      "outputs": [],
      "stateMutability": "nonpayable",
      "type": "function"
    },
    {
      "inputs": [],
      "name": "unpause",
      "outputs": [],
      "stateMutability": "nonpayable",
      "type": "function"
    },
    {
      "inputs": [
        {
          "internalType": "address",
          "name": "_to",
          "type": "address"
        },
        {
          "internalType": "string",
          "name": "uri",
          "type": "string"
        }
      ],
      "name": "mint",
      "outputs": [
        {
          "internalType": "bool",
          "name": "",
          "type": "bool"
        }
      ],
      "stateMutability": "nonpayable",
      "type": "function"
    },
    {
      "inputs": [
        {
          "internalType": "string",
          "name": "uri",
          "type": "string"
        }
      ],
      "name": "safeMint",
      "outputs": [
        {
          "internalType": "bool",
          "name": "",
          "type": "bool"
        }
      ],
      "stateMutability": "nonpayable",
      "type": "function"
    },
    {
      "inputs": [
        {
          "internalType": "uint256",
          "name": "tokenId",
          "type": "uint256"
        }
      ],
      "name": "tokenURI",
      "outputs": [
        {
          "internalType": "string",
          "name": "",
          "type": "string"
        }
      ],
      "stateMutability": "view",
      "type": "function",
      "constant": true
    },
    {
      "inputs": [
        {
          "internalType": "bytes4",
          "name": "interfaceId",
          "type": "bytes4"
        }
      ],
      "name": "supportsInterface",
      "outputs": [
        {
          "internalType": "bool",
          "name": "",
          "type": "bool"
        }
      ],
      "stateMutability": "view",
      "type": "function",
      "constant": true
    }
  ],
  "bytecode": "0x608060405234801562000010575f80fd5b506040518060400160405280601c81526020017f466f7265737420477561726469616e73204365727469666963617465000000008152506040518060400160405280600381526020017f4647430000000000000000000000000000000000000000000000000000000000815250815f90816200008d919062000965565b5080600190816200009f919062000965565b5050505f60075f6101000a81548160ff021916908315150217905550620000cf5f801b336200015760201b60201c565b620001017f6d5c9827c1f410bbb61d3b2a0a34b6b30492d9a1fd38588edca7ec4562ab9c9b336200015760201b60201c565b3360095f6101000a81548173ffffffffffffffffffffffffffffffffffffffff021916908373ffffffffffffffffffffffffffffffffffffffff160217905550620001516200024360201b60201c565b62000e56565b6200016982826200026a60201b60201c565b6200023f57600160085f8481526020019081526020015f205f015f8373ffffffffffffffffffffffffffffffffffffffff1673ffffffffffffffffffffffffffffffffffffffff1681526020019081526020015f205f6101000a81548160ff021916908315150217905550620001e4620002ce60201b60201c565b73ffffffffffffffffffffffffffffffffffffffff168173ffffffffffffffffffffffffffffffffffffffff16837f2f8788117e7eff1d82e926ec794901d17c78024a50270940304540a733656f0d60405160405180910390a45b5050565b5f801b6200025781620002d560201b60201c565b62000267620002f960201b60201c565b50565b5f60085f8481526020019081526020015f205f015f8373ffffffffffffffffffffffffffffffffffffffff1673ffffffffffffffffffffffffffffffffffffffff1681526020019081526020015f205f9054906101000a900460ff16905092915050565b5f33905090565b620002f681620002ea620002ce60201b60201c565b6200036d60201b60201c565b50565b620003096200040e60201b60201c565b600160075f6101000a81548160ff0219169083151502179055507f62e78cea01bee320cd4e420270b5ea74000d11b0c9f74754ebdbfc544b05a25862000354620002ce60201b60201c565b60405162000363919062000a8c565b60405180910390a1565b6200037f82826200026a60201b60201c565b6200040a5762000395816200046360201b60201c565b620003aa835f1c60206200049860201b60201c565b604051602001620003bd92919062000bad565b6040516020818303038152906040526040517f08c379a000000000000000000000000000000000000000000000000000000000815260040162000401919062000c4e565b60405180910390fd5b5050565b6200041e620006ec60201b60201c565b1562000461576040517f08c379a0000000000000000000000000000000000000000000000000000000008152600401620004589062000cbe565b60405180910390fd5b565b6060620004918273ffffffffffffffffffffffffffffffffffffffff16601460ff166200049860201b60201c565b9050919050565b60605f6002836002620004ac919062000d0b565b620004b8919062000d55565b67ffffffffffffffff811115620004d457620004d36200070b565b5b6040519080825280601f01601f191660200182016040528015620005075781602001600182028036833780820191505090505b5090507f3000000000000000000000000000000000000000000000000000000000000000815f8151811062000541576200054062000d8f565b5b60200101907effffffffffffffffffffffffffffffffffffffffffffffffffffffffffffff191690815f1a9053507f780000000000000000000000000000000000000000000000000000000000000081600181518110620005a757620005a662000d8f565b5b60200101907effffffffffffffffffffffffffffffffffffffffffffffffffffffffffffff191690815f1a9053505f6001846002620005e7919062000d0b565b620005f3919062000d55565b90505b60018111156200069c577f3031323334353637383961626364656600000000000000000000000000000000600f86166010811062000639576200063862000d8f565b5b1a60f81b82828151811062000653576200065262000d8f565b5b60200101907effffffffffffffffffffffffffffffffffffffffffffffffffffffffffffff191690815f1a905350600485901c945080620006949062000dbc565b9050620005f6565b505f8414620006e2576040517f08c379a0000000000000000000000000000000000000000000000000000000008152600401620006d99062000e36565b60405180910390fd5b8091505092915050565b5f60075f9054906101000a900460ff16905090565b5f81519050919050565b7f4e487b71000000000000000000000000000000000000000000000000000000005f52604160045260245ffd5b7f4e487b71000000000000000000000000000000000000000000000000000000005f52602260045260245ffd5b5f60028204905060018216806200077d57607f821691505b60208210810362000793576200079262000738565b5b50919050565b5f819050815f5260205f209050919050565b5f6020601f8301049050919050565b5f82821b905092915050565b5f60088302620007f77fffffffffffffffffffffffffffffffffffffffffffffffffffffffffffffffff82620007ba565b620008038683620007ba565b95508019841693508086168417925050509392505050565b5f819050919050565b5f819050919050565b5f6200084d6200084762000841846200081b565b62000824565b6200081b565b9050919050565b5f819050919050565b62000868836200082d565b62000880620008778262000854565b848454620007c6565b825550505050565b5f90565b6200089662000888565b620008a38184846200085d565b505050565b5b81811015620008ca57620008be5f826200088c565b600181019050620008a9565b5050565b601f8211156200091957620008e38162000799565b620008ee84620007ab565b81016020851015620008fe578190505b620009166200090d85620007ab565b830182620008a8565b50505b505050565b5f82821c905092915050565b5f6200093b5f19846008026200091e565b1980831691505092915050565b5f6200095583836200092a565b9150826002028217905092915050565b620009708262000701565b67ffffffffffffffff8111156200098c576200098b6200070b565b5b62000998825462000765565b620009a5828285620008ce565b5f60209050601f831160018114620009db575f8415620009c6578287015190505b620009d2858262000948565b86555062000a41565b601f198416620009eb8662000799565b5f5b8281101562000a1457848901518255600182019150602085019450602081019050620009ed565b8683101562000a34578489015162000a30601f8916826200092a565b8355505b6001600288020188555050505b505050505050565b5f73ffffffffffffffffffffffffffffffffffffffff82169050919050565b5f62000a748262000a49565b9050919050565b62000a868162000a68565b82525050565b5f60208201905062000aa15f83018462000a7b565b92915050565b5f81905092915050565b7f416363657373436f6e74726f6c3a206163636f756e74200000000000000000005f82015250565b5f62000ae760178362000aa7565b915062000af48262000ab1565b601782019050919050565b5f5b8381101562000b1e57808201518184015260208101905062000b01565b5f8484015250505050565b5f62000b358262000701565b62000b41818562000aa7565b935062000b5381856020860162000aff565b80840191505092915050565b7f206973206d697373696e6720726f6c65200000000000000000000000000000005f82015250565b5f62000b9560118362000aa7565b915062000ba28262000b5f565b601182019050919050565b5f62000bb98262000ad9565b915062000bc7828562000b29565b915062000bd48262000b87565b915062000be2828462000b29565b91508190509392505050565b5f82825260208201905092915050565b5f601f19601f8301169050919050565b5f62000c1a8262000701565b62000c26818562000bee565b935062000c3881856020860162000aff565b62000c438162000bfe565b840191505092915050565b5f6020820190508181035f83015262000c68818462000c0e565b905092915050565b7f5061757361626c653a20706175736564000000000000000000000000000000005f82015250565b5f62000ca660108362000bee565b915062000cb38262000c70565b602082019050919050565b5f6020820190508181035f83015262000cd78162000c98565b9050919050565b7f4e487b71000000000000000000000000000000000000000000000000000000005f52601160045260245ffd5b5f62000d17826200081b565b915062000d24836200081b565b925082820262000d34816200081b565b9150828204841483151762000d4e5762000d4d62000cde565b5b5092915050565b5f62000d61826200081b565b915062000d6e836200081b565b925082820190508082111562000d895762000d8862000cde565b5b92915050565b7f4e487b71000000000000000000000000000000000000000000000000000000005f52603260045260245ffd5b5f62000dc8826200081b565b91505f820362000ddd5762000ddc62000cde565b5b600182039050919050565b7f537472696e67733a20686578206c656e67746820696e73756666696369656e745f82015250565b5f62000e1e60208362000bee565b915062000e2b8262000de8565b602082019050919050565b5f6020820190508181035f83015262000e4f8162000e10565b9050919050565b6141688062000e645f395ff3fe608060405234801561000f575f80fd5b50600436106101a7575f3560e01c8063695850fb116100f7578063a22cb46511610095578063c87b56dd1161006f578063c87b56dd146104a3578063d0def521146104d3578063d547741f14610503578063e985e9c51461051f576101a7565b8063a22cb4651461044d578063b150377414610469578063b88d4fde14610487576101a7565b80638da5cb5b116100d15780638da5cb5b146103c357806391d14854146103e157806395d89b4114610411578063a217fddf1461042f576101a7565b8063695850fb1461035957806370a08231146103895780638456cb59146103b9576101a7565b80632f2ff15d1161016457806342842e0e1161013e57806342842e0e146102d357806342966c68146102ef5780635c975abb1461030b5780636352211e14610329576101a7565b80632f2ff15d1461029157806336568abe146102ad5780633f4ba83a146102c9576101a7565b806301ffc9a7146101ab57806306fdde03146101db578063081812fc146101f9578063095ea7b31461022957806323b872dd14610245578063248a9ca314610261575b5f80fd5b6101c560048036038101906101c09190612a7f565b61054f565b6040516101d29190612ac4565b60405180910390f35b6101e3610560565b6040516101f09190612b67565b60405180910390f35b610213600480360381019061020e9190612bba565b6105ef565b6040516102209190612c24565b60405180910390f35b610243600480360381019061023e9190612c67565b610631565b005b61025f600480360381019061025a9190612ca5565b610747565b005b61027b60048036038101906102769190612d28565b6107a7565b6040516102889190612d62565b60405180910390f35b6102ab60048036038101906102a69190612d7b565b6107c4565b005b6102c760048036038101906102c29190612d7b565b610841565b005b6102d16108c4565b005b6102ed60048036038101906102e89190612ca5565b6108db565b005b61030960048036038101906103049190612bba565b6108fa565b005b610313610956565b6040516103209190612ac4565b60405180910390f35b610343600480360381019061033e9190612bba565b61096b565b6040516103509190612c24565b60405180910390f35b610373600480360381019061036e9190612ee5565b6109ef565b6040516103809190612ac4565b60405180910390f35b6103a3600480360381019061039e9190612f2c565b610b53565b6040516103b09190612f66565b60405180910390f35b6103c1610c07565b005b6103cb610c1e565b6040516103d89190612c24565b60405180910390f35b6103fb60048036038101906103f69190612d7b565b610c43565b6040516104089190612ac4565b60405180910390f35b610419610ca7565b6040516104269190612b67565b60405180910390f35b610437610d37565b6040516104449190612d62565b60405180910390f35b61046760048036038101906104629190612fa9565b610d3d565b005b610471610d53565b60405161047e9190612d62565b60405180910390f35b6104a1600480360381019061049c9190613085565b610d77565b005b6104bd60048036038101906104b89190612bba565b610dd9565b6040516104ca9190612b67565b60405180910390f35b6104ed60048036038101906104e89190613105565b610deb565b6040516104fa9190612ac4565b60405180910390f35b61051d60048036038101906105189190612d7b565b610eee565b005b6105396004803603810190610534919061315f565b610f0f565b6040516105469190612ac4565b60405180910390f35b5f61055982610f9d565b9050919050565b60605f805461056e906131ca565b80601f016020809104026020016040519081016040528092919081815260200182805461059a906131ca565b80156105e55780601f106105bc576101008083540402835291602001916105e5565b820191905f5260205f20905b8154815290600101906020018083116105c857829003601f168201915b5050505050905090565b5f6105f982611016565b60045f8381526020019081526020015f205f9054906101000a900473ffffffffffffffffffffffffffffffffffffffff169050919050565b5f61063b8261096b565b90508073ffffffffffffffffffffffffffffffffffffffff168373ffffffffffffffffffffffffffffffffffffffff16036106ab576040517f08c379a00000000000000000000000000000000000000000000000000000000081526004016106a29061326a565b60405180910390fd5b8073ffffffffffffffffffffffffffffffffffffffff166106ca611061565b73ffffffffffffffffffffffffffffffffffffffff1614806106f957506106f8816106f3611061565b610f0f565b5b610738576040517f08c379a000000000000000000000000000000000000000000000000000000000815260040161072f906132f8565b60405180910390fd5b6107428383611068565b505050565b610758610752611061565b8261111e565b610797576040517f08c379a000000000000000000000000000000000000000000000000000000000815260040161078e90613386565b60405180910390fd5b6107a28383836111b2565b505050565b5f60085f8381526020019081526020015f20600101549050919050565b5f801b6107d08161149e565b7f6d5c9827c1f410bbb61d3b2a0a34b6b30492d9a1fd38588edca7ec4562ab9c9b8314610832576040517f08c379a000000000000000000000000000000000000000000000000000000000815260040161082990613414565b60405180910390fd5b61083c83836114b2565b505050565b610849611061565b73ffffffffffffffffffffffffffffffffffffffff168173ffffffffffffffffffffffffffffffffffffffff16146108b6576040517f08c379a00000000000000000000000000000000000000000000000000000000081526004016108ad906134a2565b60405180910390fd5b6108c082826114d3565b5050565b5f801b6108d08161149e565b6108d86115ae565b50565b6108f583838360405180602001604052805f815250610d77565b505050565b61090b610905611061565b8261111e565b61094a576040517f08c379a000000000000000000000000000000000000000000000000000000000815260040161094190613386565b60405180910390fd5b6109538161160f565b50565b5f60075f9054906101000a900460ff16905090565b5f806109768361161b565b90505f73ffffffffffffffffffffffffffffffffffffffff168173ffffffffffffffffffffffffffffffffffffffff16036109e6576040517f08c379a00000000000000000000000000000000000000000000000000000000081526004016109dd9061350a565b60405180910390fd5b80915050919050565b5f805f1b6109fc8161149e565b600a83604051610a0c9190613562565b90815260200160405180910390205f9054906101000a900460ff1615610a67576040517f08c379a0000000000000000000000000000000000000000000000000000000008152600401610a5e906135c2565b60405180910390fd5b5f610a72600b611654565b9050610a7e600b611660565b6001600a85604051610a909190613562565b90815260200160405180910390205f6101000a81548160ff021916908315150217905550610adf60095f9054906101000a900473ffffffffffffffffffffffffffffffffffffffff1682611674565b610ae98185611691565b7fe0a59e9871c1c69ab40310a78782e232846aa3028ee7bf0197465108d0704f31610b12611733565b85604051602001610b249291906135e0565b604051602081830303815290604052604051610b409190612b67565b60405180910390a1600192505050919050565b5f8073ffffffffffffffffffffffffffffffffffffffff168273ffffffffffffffffffffffffffffffffffffffff1603610bc2576040517f08c379a0000000000000000000000000000000000000000000000000000000008152600401610bb990613685565b60405180910390fd5b60035f8373ffffffffffffffffffffffffffffffffffffffff1673ffffffffffffffffffffffffffffffffffffffff1681526020019081526020015f20549050919050565b5f801b610c138161149e565b610c1b611770565b50565b60095f9054906101000a900473ffffffffffffffffffffffffffffffffffffffff1681565b5f60085f8481526020019081526020015f205f015f8373ffffffffffffffffffffffffffffffffffffffff1673ffffffffffffffffffffffffffffffffffffffff1681526020019081526020015f205f9054906101000a900460ff16905092915050565b606060018054610cb6906131ca565b80601f0160208091040260200160405190810160405280929190818152602001828054610ce2906131ca565b8015610d2d5780601f10610d0457610100808354040283529160200191610d2d565b820191905f5260205f20905b815481529060010190602001808311610d1057829003601f168201915b5050505050905090565b5f801b81565b610d4f610d48611061565b83836117d2565b5050565b7f6d5c9827c1f410bbb61d3b2a0a34b6b30492d9a1fd38588edca7ec4562ab9c9b81565b610d88610d82611061565b8361111e565b610dc7576040517f08c379a0000000000000000000000000000000000000000000000000000000008152600401610dbe90613386565b60405180910390fd5b610dd384848484611939565b50505050565b6060610de482611995565b9050919050565b5f7f6d5c9827c1f410bbb61d3b2a0a34b6b30492d9a1fd38588edca7ec4562ab9c9b610e168161149e565b600a83604051610e269190613562565b90815260200160405180910390205f9054906101000a900460ff1615610e81576040517f08c379a0000000000000000000000000000000000000000000000000000000008152600401610e78906135c2565b60405180910390fd5b5f610e8c600b611654565b9050610e98600b611660565b6001600a85604051610eaa9190613562565b90815260200160405180910390205f6101000a81548160ff021916908315150217905550610ed88582611674565b610ee28185611691565b60019250505092915050565b610ef7826107a7565b610f008161149e565b610f0a83836114d3565b505050565b5f60055f8473ffffffffffffffffffffffffffffffffffffffff1673ffffffffffffffffffffffffffffffffffffffff1681526020019081526020015f205f8373ffffffffffffffffffffffffffffffffffffffff1673ffffffffffffffffffffffffffffffffffffffff1681526020019081526020015f205f9054906101000a900460ff16905092915050565b5f7f7965db0b000000000000000000000000000000000000000000000000000000007bffffffffffffffffffffffffffffffffffffffffffffffffffffffff1916827bffffffffffffffffffffffffffffffffffffffffffffffffffffffff1916148061100f575061100e82611a9f565b5b9050919050565b61101f81611aff565b61105e576040517f08c379a00000000000000000000000000000000000000000000000000000000081526004016110559061350a565b60405180910390fd5b50565b5f33905090565b8160045f8381526020019081526020015f205f6101000a81548173ffffffffffffffffffffffffffffffffffffffff021916908373ffffffffffffffffffffffffffffffffffffffff160217905550808273ffffffffffffffffffffffffffffffffffffffff166110d88361096b565b73ffffffffffffffffffffffffffffffffffffffff167f8c5be1e5ebec7d5bd14f71427d1e84f3dd0314c0f7b2291e5b200ac8c7c3b92560405160405180910390a45050565b5f806111298361096b565b90508073ffffffffffffffffffffffffffffffffffffffff168473ffffffffffffffffffffffffffffffffffffffff16148061116b575061116a8185610f0f565b5b806111a957508373ffffffffffffffffffffffffffffffffffffffff16611191846105ef565b73ffffffffffffffffffffffffffffffffffffffff16145b91505092915050565b8273ffffffffffffffffffffffffffffffffffffffff166111d28261096b565b73ffffffffffffffffffffffffffffffffffffffff1614611228576040517f08c379a000000000000000000000000000000000000000000000000000000000815260040161121f90613713565b60405180910390fd5b5f73ffffffffffffffffffffffffffffffffffffffff168273ffffffffffffffffffffffffffffffffffffffff1603611296576040517f08c379a000000000000000000000000000000000000000000000000000000000815260040161128d906137a1565b60405180910390fd5b6112a38383836001611b3f565b8273ffffffffffffffffffffffffffffffffffffffff166112c38261096b565b73ffffffffffffffffffffffffffffffffffffffff1614611319576040517f08c379a000000000000000000000000000000000000000000000000000000000815260040161131090613713565b60405180910390fd5b60045f8281526020019081526020015f205f6101000a81549073ffffffffffffffffffffffffffffffffffffffff0219169055600160035f8573ffffffffffffffffffffffffffffffffffffffff1673ffffffffffffffffffffffffffffffffffffffff1681526020019081526020015f205f8282540392505081905550600160035f8473ffffffffffffffffffffffffffffffffffffffff1673ffffffffffffffffffffffffffffffffffffffff1681526020019081526020015f205f82825401925050819055508160025f8381526020019081526020015f205f6101000a81548173ffffffffffffffffffffffffffffffffffffffff021916908373ffffffffffffffffffffffffffffffffffffffff160217905550808273ffffffffffffffffffffffffffffffffffffffff168473ffffffffffffffffffffffffffffffffffffffff167fddf252ad1be2c89b69c2b068fc378daa952ba7f163c4a11628f55a4df523b3ef60405160405180910390a46114998383836001611bf8565b505050565b6114af816114aa611061565b611bfe565b50565b6114bb826107a7565b6114c48161149e565b6114ce8383611c82565b505050565b6114dd8282610c43565b156115aa575f60085f8481526020019081526020015f205f015f8373ffffffffffffffffffffffffffffffffffffffff1673ffffffffffffffffffffffffffffffffffffffff1681526020019081526020015f205f6101000a81548160ff02191690831515021790555061154f611061565b73ffffffffffffffffffffffffffffffffffffffff168173ffffffffffffffffffffffffffffffffffffffff16837ff6391f5c32d9c69d2a47ea670b442974b53935d1edc7fd64eb21e047a839171b60405160405180910390a45b5050565b6115b6611d5d565b5f60075f6101000a81548160ff0219169083151502179055507f5db9ee0a495bf2e6ff9c91a7834c1ba4fdd244a5e8aa4e537bd38aeae4b073aa6115f8611061565b6040516116059190612c24565b60405180910390a1565b61161881611da6565b50565b5f60025f8381526020019081526020015f205f9054906101000a900473ffffffffffffffffffffffffffffffffffffffff169050919050565b5f815f01549050919050565b6001815f015f828254019250508190555050565b61168d828260405180602001604052805f815250611df3565b5050565b61169a82611aff565b6116d9576040517f08c379a00000000000000000000000000000000000000000000000000000000081526004016116d09061382f565b60405180910390fd5b8060065f8481526020019081526020015f2090816116f791906139ea565b507ff8e1a15aba9398e019f0b49df1a4fde98ee17ae345cb5f6b5e2c27f5033e8ce7826040516117279190612f66565b60405180910390a15050565b60606040518060400160405280601581526020017f68747470733a2f2f697066732e696f2f697066732f0000000000000000000000815250905090565b611778611e4d565b600160075f6101000a81548160ff0219169083151502179055507f62e78cea01bee320cd4e420270b5ea74000d11b0c9f74754ebdbfc544b05a2586117bb611061565b6040516117c89190612c24565b60405180910390a1565b8173ffffffffffffffffffffffffffffffffffffffff168373ffffffffffffffffffffffffffffffffffffffff1603611840576040517f08c379a000000000000000000000000000000000000000000000000000000000815260040161183790613b03565b60405180910390fd5b8060055f8573ffffffffffffffffffffffffffffffffffffffff1673ffffffffffffffffffffffffffffffffffffffff1681526020019081526020015f205f8473ffffffffffffffffffffffffffffffffffffffff1673ffffffffffffffffffffffffffffffffffffffff1681526020019081526020015f205f6101000a81548160ff0219169083151502179055508173ffffffffffffffffffffffffffffffffffffffff168373ffffffffffffffffffffffffffffffffffffffff167f17307eab39ab6107e8899845ad3d59bd9653f200f220920489ca2b5937696c318360405161192c9190612ac4565b60405180910390a3505050565b6119448484846111b2565b61195084848484611e97565b61198f576040517f08c379a000000000000000000000000000000000000000000000000000000000815260040161198690613b91565b60405180910390fd5b50505050565b60606119a082611016565b5f60065f8481526020019081526020015f2080546119bd906131ca565b80601f01602080910402602001604051908101604052809291908181526020018280546119e9906131ca565b8015611a345780601f10611a0b57610100808354040283529160200191611a34565b820191905f5260205f20905b815481529060010190602001808311611a1757829003601f168201915b505050505090505f611a44611733565b90505f815103611a58578192505050611a9a565b5f82511115611a8c578082604051602001611a74929190613baf565b60405160208183030381529060405292505050611a9a565b611a9584612019565b925050505b919050565b5f634906490660e01b7bffffffffffffffffffffffffffffffffffffffffffffffffffffffff1916827bffffffffffffffffffffffffffffffffffffffffffffffffffffffff19161480611af85750611af78261207e565b5b9050919050565b5f8073ffffffffffffffffffffffffffffffffffffffff16611b208361161b565b73ffffffffffffffffffffffffffffffffffffffff1614159050919050565b611b47611e4d565b611b538484848461215f565b611b7d7f6d5c9827c1f410bbb61d3b2a0a34b6b30492d9a1fd38588edca7ec4562ab9c9b33610c43565b80611bb357505f73ffffffffffffffffffffffffffffffffffffffff168373ffffffffffffffffffffffffffffffffffffffff16145b611bf2576040517f08c379a0000000000000000000000000000000000000000000000000000000008152600401611be990613c42565b60405180910390fd5b50505050565b50505050565b611c088282610c43565b611c7e57611c1581612165565b611c22835f1c6020612192565b604051602001611c33929190613cf4565b6040516020818303038152906040526040517f08c379a0000000000000000000000000000000000000000000000000000000008152600401611c759190612b67565b60405180910390fd5b5050565b611c8c8282610c43565b611d5957600160085f8481526020019081526020015f205f015f8373ffffffffffffffffffffffffffffffffffffffff1673ffffffffffffffffffffffffffffffffffffffff1681526020019081526020015f205f6101000a81548160ff021916908315150217905550611cfe611061565b73ffffffffffffffffffffffffffffffffffffffff168173ffffffffffffffffffffffffffffffffffffffff16837f2f8788117e7eff1d82e926ec794901d17c78024a50270940304540a733656f0d60405160405180910390a45b5050565b611d65610956565b611da4576040517f08c379a0000000000000000000000000000000000000000000000000000000008152600401611d9b90613d77565b60405180910390fd5b565b611daf816123c7565b5f60065f8381526020019081526020015f208054611dcc906131ca565b905014611df05760065f8281526020019081526020015f205f611def91906129c1565b5b50565b611dfd8383612508565b611e095f848484611e97565b611e48576040517f08c379a0000000000000000000000000000000000000000000000000000000008152600401611e3f90613b91565b60405180910390fd5b505050565b611e55610956565b15611e95576040517f08c379a0000000000000000000000000000000000000000000000000000000008152600401611e8c90613ddf565b60405180910390fd5b565b5f611eb78473ffffffffffffffffffffffffffffffffffffffff1661271b565b1561200c578373ffffffffffffffffffffffffffffffffffffffff1663150b7a02611ee0611061565b8786866040518563ffffffff1660e01b8152600401611f029493929190613e4f565b6020604051808303815f875af1925050508015611f3d57506040513d601f19601f82011682018060405250810190611f3a9190613ead565b60015b611fbc573d805f8114611f6b576040519150601f19603f3d011682016040523d82523d5f602084013e611f70565b606091505b505f815103611fb4576040517f08c379a0000000000000000000000000000000000000000000000000000000008152600401611fab90613b91565b60405180910390fd5b805181602001fd5b63150b7a0260e01b7bffffffffffffffffffffffffffffffffffffffffffffffffffffffff1916817bffffffffffffffffffffffffffffffffffffffffffffffffffffffff191614915050612011565b600190505b949350505050565b606061202482611016565b5f61202d611733565b90505f81511161204b5760405180602001604052805f815250612076565b806120558461273d565b604051602001612066929190613baf565b6040516020818303038152906040525b915050919050565b5f7f80ac58cd000000000000000000000000000000000000000000000000000000007bffffffffffffffffffffffffffffffffffffffffffffffffffffffff1916827bffffffffffffffffffffffffffffffffffffffffffffffffffffffff1916148061214857507f5b5e139f000000000000000000000000000000000000000000000000000000007bffffffffffffffffffffffffffffffffffffffffffffffffffffffff1916827bffffffffffffffffffffffffffffffffffffffffffffffffffffffff1916145b80612158575061215782612807565b5b9050919050565b50505050565b606061218b8273ffffffffffffffffffffffffffffffffffffffff16601460ff16612192565b9050919050565b60605f60028360026121a49190613f05565b6121ae9190613f46565b67ffffffffffffffff8111156121c7576121c6612dc1565b5b6040519080825280601f01601f1916602001820160405280156121f95781602001600182028036833780820191505090505b5090507f3000000000000000000000000000000000000000000000000000000000000000815f815181106122305761222f613f79565b5b60200101907effffffffffffffffffffffffffffffffffffffffffffffffffffffffffffff191690815f1a9053507f78000000000000000000000000000000000000000000000000000000000000008160018151811061229357612292613f79565b5b60200101907effffffffffffffffffffffffffffffffffffffffffffffffffffffffffffff191690815f1a9053505f60018460026122d19190613f05565b6122db9190613f46565b90505b600181111561237a577f3031323334353637383961626364656600000000000000000000000000000000600f86166010811061231d5761231c613f79565b5b1a60f81b82828151811061233457612333613f79565b5b60200101907effffffffffffffffffffffffffffffffffffffffffffffffffffffffffffff191690815f1a905350600485901c94508061237390613fa6565b90506122de565b505f84146123bd576040517f08c379a00000000000000000000000000000000000000000000000000000000081526004016123b490614017565b60405180910390fd5b8091505092915050565b5f6123d18261096b565b90506123e0815f846001611b3f565b6123e98261096b565b905060045f8381526020019081526020015f205f6101000a81549073ffffffffffffffffffffffffffffffffffffffff0219169055600160035f8373ffffffffffffffffffffffffffffffffffffffff1673ffffffffffffffffffffffffffffffffffffffff1681526020019081526020015f205f828254039250508190555060025f8381526020019081526020015f205f6101000a81549073ffffffffffffffffffffffffffffffffffffffff0219169055815f73ffffffffffffffffffffffffffffffffffffffff168273ffffffffffffffffffffffffffffffffffffffff167fddf252ad1be2c89b69c2b068fc378daa952ba7f163c4a11628f55a4df523b3ef60405160405180910390a4612504815f846001611bf8565b5050565b5f73ffffffffffffffffffffffffffffffffffffffff168273ffffffffffffffffffffffffffffffffffffffff1603612576576040517f08c379a000000000000000000000000000000000000000000000000000000000815260040161256d9061407f565b60405180910390fd5b61257f81611aff565b156125bf576040517f08c379a00000000000000000000000000000000000000000000000000000000081526004016125b6906140e7565b60405180910390fd5b6125cc5f83836001611b3f565b6125d581611aff565b15612615576040517f08c379a000000000000000000000000000000000000000000000000000000000815260040161260c906140e7565b60405180910390fd5b600160035f8473ffffffffffffffffffffffffffffffffffffffff1673ffffffffffffffffffffffffffffffffffffffff1681526020019081526020015f205f82825401925050819055508160025f8381526020019081526020015f205f6101000a81548173ffffffffffffffffffffffffffffffffffffffff021916908373ffffffffffffffffffffffffffffffffffffffff160217905550808273ffffffffffffffffffffffffffffffffffffffff165f73ffffffffffffffffffffffffffffffffffffffff167fddf252ad1be2c89b69c2b068fc378daa952ba7f163c4a11628f55a4df523b3ef60405160405180910390a46127175f83836001611bf8565b5050565b5f808273ffffffffffffffffffffffffffffffffffffffff163b119050919050565b60605f600161274b84612870565b0190505f8167ffffffffffffffff81111561276957612768612dc1565b5b6040519080825280601f01601f19166020018201604052801561279b5781602001600182028036833780820191505090505b5090505f82602001820190505b6001156127fc578080600190039150507f3031323334353637383961626364656600000000000000000000000000000000600a86061a8153600a85816127f1576127f0614105565b5b0494505f85036127a8575b819350505050919050565b5f7f01ffc9a7000000000000000000000000000000000000000000000000000000007bffffffffffffffffffffffffffffffffffffffffffffffffffffffff1916827bffffffffffffffffffffffffffffffffffffffffffffffffffffffff1916149050919050565b5f805f90507a184f03e93ff9f4daa797ed6e38ed64bf6a1f01000000000000000083106128cc577a184f03e93ff9f4daa797ed6e38ed64bf6a1f01000000000000000083816128c2576128c1614105565b5b0492506040810190505b6d04ee2d6d415b85acef81000000008310612909576d04ee2d6d415b85acef810000000083816128ff576128fe614105565b5b0492506020810190505b662386f26fc10000831061293857662386f26fc10000838161292e5761292d614105565b5b0492506010810190505b6305f5e1008310612961576305f5e100838161295757612956614105565b5b0492506008810190505b612710831061298657612710838161297c5761297b614105565b5b0492506004810190505b606483106129a9576064838161299f5761299e614105565b5b0492506002810190505b600a83106129b8576001810190505b80915050919050565b5080546129cd906131ca565b5f825580601f106129de57506129fb565b601f0160209004905f5260205f20908101906129fa91906129fe565b5b50565b5b80821115612a15575f815f9055506001016129ff565b5090565b5f604051905090565b5f80fd5b5f80fd5b5f7fffffffff0000000000000000000000000000000000000000000000000000000082169050919050565b612a5e81612a2a565b8114612a68575f80fd5b50565b5f81359050612a7981612a55565b92915050565b5f60208284031215612a9457612a93612a22565b5b5f612aa184828501612a6b565b91505092915050565b5f8115159050919050565b612abe81612aaa565b82525050565b5f602082019050612ad75f830184612ab5565b92915050565b5f81519050919050565b5f82825260208201905092915050565b5f5b83811015612b14578082015181840152602081019050612af9565b5f8484015250505050565b5f601f19601f8301169050919050565b5f612b3982612add565b612b438185612ae7565b9350612b53818560208601612af7565b612b5c81612b1f565b840191505092915050565b5f6020820190508181035f830152612b7f8184612b2f565b905092915050565b5f819050919050565b612b9981612b87565b8114612ba3575f80fd5b50565b5f81359050612bb481612b90565b92915050565b5f60208284031215612bcf57612bce612a22565b5b5f612bdc84828501612ba6565b91505092915050565b5f73ffffffffffffffffffffffffffffffffffffffff82169050919050565b5f612c0e82612be5565b9050919050565b612c1e81612c04565b82525050565b5f602082019050612c375f830184612c15565b92915050565b612c4681612c04565b8114612c50575f80fd5b50565b5f81359050612c6181612c3d565b92915050565b5f8060408385031215612c7d57612c7c612a22565b5b5f612c8a85828601612c53565b9250506020612c9b85828601612ba6565b9150509250929050565b5f805f60608486031215612cbc57612cbb612a22565b5b5f612cc986828701612c53565b9350506020612cda86828701612c53565b9250506040612ceb86828701612ba6565b9150509250925092565b5f819050919050565b612d0781612cf5565b8114612d11575f80fd5b50565b5f81359050612d2281612cfe565b92915050565b5f60208284031215612d3d57612d3c612a22565b5b5f612d4a84828501612d14565b91505092915050565b612d5c81612cf5565b82525050565b5f602082019050612d755f830184612d53565b92915050565b5f8060408385031215612d9157612d90612a22565b5b5f612d9e85828601612d14565b9250506020612daf85828601612c53565b9150509250929050565b5f80fd5b5f80fd5b7f4e487b71000000000000000000000000000000000000000000000000000000005f52604160045260245ffd5b612df782612b1f565b810181811067ffffffffffffffff82111715612e1657612e15612dc1565b5b80604052505050565b5f612e28612a19565b9050612e348282612dee565b919050565b5f67ffffffffffffffff821115612e5357612e52612dc1565b5b612e5c82612b1f565b9050602081019050919050565b828183375f83830152505050565b5f612e89612e8484612e39565b612e1f565b905082815260208101848484011115612ea557612ea4612dbd565b5b612eb0848285612e69565b509392505050565b5f82601f830112612ecc57612ecb612db9565b5b8135612edc848260208601612e77565b91505092915050565b5f60208284031215612efa57612ef9612a22565b5b5f82013567ffffffffffffffff811115612f1757612f16612a26565b5b612f2384828501612eb8565b91505092915050565b5f60208284031215612f4157612f40612a22565b5b5f612f4e84828501612c53565b91505092915050565b612f6081612b87565b82525050565b5f602082019050612f795f830184612f57565b92915050565b612f8881612aaa565b8114612f92575f80fd5b50565b5f81359050612fa381612f7f565b92915050565b5f8060408385031215612fbf57612fbe612a22565b5b5f612fcc85828601612c53565b9250506020612fdd85828601612f95565b9150509250929050565b5f67ffffffffffffffff82111561300157613000612dc1565b5b61300a82612b1f565b9050602081019050919050565b5f61302961302484612fe7565b612e1f565b90508281526020810184848401111561304557613044612dbd565b5b613050848285612e69565b509392505050565b5f82601f83011261306c5761306b612db9565b5b813561307c848260208601613017565b91505092915050565b5f805f806080858703121561309d5761309c612a22565b5b5f6130aa87828801612c53565b94505060206130bb87828801612c53565b93505060406130cc87828801612ba6565b925050606085013567ffffffffffffffff8111156130ed576130ec612a26565b5b6130f987828801613058565b91505092959194509250565b5f806040838503121561311b5761311a612a22565b5b5f61312885828601612c53565b925050602083013567ffffffffffffffff81111561314957613148612a26565b5b61315585828601612eb8565b9150509250929050565b5f806040838503121561317557613174612a22565b5b5f61318285828601612c53565b925050602061319385828601612c53565b9150509250929050565b7f4e487b71000000000000000000000000000000000000000000000000000000005f52602260045260245ffd5b5f60028204905060018216806131e157607f821691505b6020821081036131f4576131f361319d565b5b50919050565b7f4552433732313a20617070726f76616c20746f2063757272656e74206f776e655f8201527f7200000000000000000000000000000000000000000000000000000000000000602082015250565b5f613254602183612ae7565b915061325f826131fa565b604082019050919050565b5f6020820190508181035f83015261328181613248565b9050919050565b7f4552433732313a20617070726f76652063616c6c6572206973206e6f7420746f5f8201527f6b656e206f776e6572206f7220617070726f76656420666f7220616c6c000000602082015250565b5f6132e2603d83612ae7565b91506132ed82613288565b604082019050919050565b5f6020820190508181035f83015261330f816132d6565b9050919050565b7f4552433732313a2063616c6c6572206973206e6f7420746f6b656e206f776e655f8201527f72206f7220617070726f76656400000000000000000000000000000000000000602082015250565b5f613370602d83612ae7565b915061337b82613316565b604082019050919050565b5f6020820190508181035f83015261339d81613364565b9050919050565b7f4f6e6c7920424f545f524f4c452063616e206265206772616e74656420746f205f8201527f6e65772075736572732e00000000000000000000000000000000000000000000602082015250565b5f6133fe602a83612ae7565b9150613409826133a4565b604082019050919050565b5f6020820190508181035f83015261342b816133f2565b9050919050565b7f416363657373436f6e74726f6c3a2063616e206f6e6c792072656e6f756e63655f8201527f20726f6c657320666f722073656c660000000000000000000000000000000000602082015250565b5f61348c602f83612ae7565b915061349782613432565b604082019050919050565b5f6020820190508181035f8301526134b981613480565b9050919050565b7f4552433732313a20696e76616c696420746f6b656e20494400000000000000005f82015250565b5f6134f4601883612ae7565b91506134ff826134c0565b602082019050919050565b5f6020820190508181035f830152613521816134e8565b9050919050565b5f81905092915050565b5f61353c82612add565b6135468185613528565b9350613556818560208601612af7565b80840191505092915050565b5f61356d8284613532565b915081905092915050565b7f54686520636572746966696361746520616c72656164792065786973747300005f82015250565b5f6135ac601e83612ae7565b91506135b782613578565b602082019050919050565b5f6020820190508181035f8301526135d9816135a0565b9050919050565b5f6040820190508181035f8301526135f88185612b2f565b9050818103602083015261360c8184612b2f565b90509392505050565b7f4552433732313a2061646472657373207a65726f206973206e6f7420612076615f8201527f6c6964206f776e65720000000000000000000000000000000000000000000000602082015250565b5f61366f602983612ae7565b915061367a82613615565b604082019050919050565b5f6020820190508181035f83015261369c81613663565b9050919050565b7f4552433732313a207472616e736665722066726f6d20696e636f7272656374205f8201527f6f776e6572000000000000000000000000000000000000000000000000000000602082015250565b5f6136fd602583612ae7565b9150613708826136a3565b604082019050919050565b5f6020820190508181035f83015261372a816136f1565b9050919050565b7f4552433732313a207472616e7366657220746f20746865207a65726f206164645f8201527f7265737300000000000000000000000000000000000000000000000000000000602082015250565b5f61378b602483612ae7565b915061379682613731565b604082019050919050565b5f6020820190508181035f8301526137b88161377f565b9050919050565b7f45524337323155524953746f726167653a2055524920736574206f66206e6f6e5f8201527f6578697374656e7420746f6b656e000000000000000000000000000000000000602082015250565b5f613819602e83612ae7565b9150613824826137bf565b604082019050919050565b5f6020820190508181035f8301526138468161380d565b9050919050565b5f819050815f5260205f209050919050565b5f6020601f8301049050919050565b5f82821b905092915050565b5f600883026138a97fffffffffffffffffffffffffffffffffffffffffffffffffffffffffffffffff8261386e565b6138b3868361386e565b95508019841693508086168417925050509392505050565b5f819050919050565b5f6138ee6138e96138e484612b87565b6138cb565b612b87565b9050919050565b5f819050919050565b613907836138d4565b61391b613913826138f5565b84845461387a565b825550505050565b5f90565b61392f613923565b61393a8184846138fe565b505050565b5b8181101561395d576139525f82613927565b600181019050613940565b5050565b601f8211156139a2576139738161384d565b61397c8461385f565b8101602085101561398b578190505b61399f6139978561385f565b83018261393f565b50505b505050565b5f82821c905092915050565b5f6139c25f19846008026139a7565b1980831691505092915050565b5f6139da83836139b3565b9150826002028217905092915050565b6139f382612add565b67ffffffffffffffff811115613a0c57613a0b612dc1565b5b613a1682546131ca565b613a21828285613961565b5f60209050601f831160018114613a52575f8415613a40578287015190505b613a4a85826139cf565b865550613ab1565b601f198416613a608661384d565b5f5b82811015613a8757848901518255600182019150602085019450602081019050613a62565b86831015613aa45784890151613aa0601f8916826139b3565b8355505b6001600288020188555050505b505050505050565b7f4552433732313a20617070726f766520746f2063616c6c6572000000000000005f82015250565b5f613aed601983612ae7565b9150613af882613ab9565b602082019050919050565b5f6020820190508181035f830152613b1a81613ae1565b9050919050565b7f4552433732313a207472616e7366657220746f206e6f6e2045524337323152655f8201527f63656976657220696d706c656d656e7465720000000000000000000000000000602082015250565b5f613b7b603283612ae7565b9150613b8682613b21565b604082019050919050565b5f6020820190508181035f830152613ba881613b6f565b9050919050565b5f613bba8285613532565b9150613bc68284613532565b91508190509392505050565b7f43657274696669636174652063616e206f6e6c79206265206275726e65642c205f8201527f6e6f74207472616e736665727265642e00000000000000000000000000000000602082015250565b5f613c2c603083612ae7565b9150613c3782613bd2565b604082019050919050565b5f6020820190508181035f830152613c5981613c20565b9050919050565b7f416363657373436f6e74726f6c3a206163636f756e74200000000000000000005f82015250565b5f613c94601783613528565b9150613c9f82613c60565b601782019050919050565b7f206973206d697373696e6720726f6c65200000000000000000000000000000005f82015250565b5f613cde601183613528565b9150613ce982613caa565b601182019050919050565b5f613cfe82613c88565b9150613d0a8285613532565b9150613d1582613cd2565b9150613d218284613532565b91508190509392505050565b7f5061757361626c653a206e6f74207061757365640000000000000000000000005f82015250565b5f613d61601483612ae7565b9150613d6c82613d2d565b602082019050919050565b5f6020820190508181035f830152613d8e81613d55565b9050919050565b7f5061757361626c653a20706175736564000000000000000000000000000000005f82015250565b5f613dc9601083612ae7565b9150613dd482613d95565b602082019050919050565b5f6020820190508181035f830152613df681613dbd565b9050919050565b5f81519050919050565b5f82825260208201905092915050565b5f613e2182613dfd565b613e2b8185613e07565b9350613e3b818560208601612af7565b613e4481612b1f565b840191505092915050565b5f608082019050613e625f830187612c15565b613e6f6020830186612c15565b613e7c6040830185612f57565b8181036060830152613e8e8184613e17565b905095945050505050565b5f81519050613ea781612a55565b92915050565b5f60208284031215613ec257613ec1612a22565b5b5f613ecf84828501613e99565b91505092915050565b7f4e487b71000000000000000000000000000000000000000000000000000000005f52601160045260245ffd5b5f613f0f82612b87565b9150613f1a83612b87565b9250828202613f2881612b87565b91508282048414831517613f3f57613f3e613ed8565b5b5092915050565b5f613f5082612b87565b9150613f5b83612b87565b9250828201905080821115613f7357613f72613ed8565b5b92915050565b7f4e487b71000000000000000000000000000000000000000000000000000000005f52603260045260245ffd5b5f613fb082612b87565b91505f8203613fc257613fc1613ed8565b5b600182039050919050565b7f537472696e67733a20686578206c656e67746820696e73756666696369656e745f82015250565b5f614001602083612ae7565b915061400c82613fcd565b602082019050919050565b5f6020820190508181035f83015261402e81613ff5565b9050919050565b7f4552433732313a206d696e7420746f20746865207a65726f20616464726573735f82015250565b5f614069602083612ae7565b915061407482614035565b602082019050919050565b5f6020820190508181035f8301526140968161405d565b9050919050565b7f4552433732313a20746f6b656e20616c7265616479206d696e746564000000005f82015250565b5f6140d1601c83612ae7565b91506140dc8261409d565b602082019050919050565b5f6020820190508181035f8301526140fe816140c5565b9050919050565b7f4e487b71000000000000000000000000000000000000000000000000000000005f52601260045260245ffdfea26469706673582212202baf33b2ff076a3622433abc5e75a60f2f7ad0bdb7b69532503a2a4f4ecbd1f064736f6c63430008150033",
  "immutableReferences": {},
  "source": "// SPDX-License-Identifier: MIT\npragma solidity ^0.8.9;\n\nimport \"@openzeppelin/contracts/token/ERC721/ERC721.sol\";\nimport \"@openzeppelin/contracts/token/ERC721/extensions/ERC721URIStorage.sol\";\nimport \"@openzeppelin/contracts/security/Pausable.sol\";\nimport \"@openzeppelin/contracts/access/AccessControl.sol\";\nimport \"@openzeppelin/contracts/token/ERC721/extensions/ERC721Burnable.sol\";\nimport \"@openzeppelin/contracts/utils/Counters.sol\";\n\n/// @title Certificate for the Forest Guardians Project\n/// @notice one of 3 contracts of the Forest Guardians Project\n/// @author Alexander Vardanyan\n/// @custom:security-contact alexandervardanyan1@gmail.com\ncontract FGCertificate is ERC721, ERC721URIStorage, Pausable, AccessControl, ERC721Burnable {\n    using Counters for Counters.Counter;\n\n    bytes32 public constant BOT_ROLE = keccak256(\"BOT_ROLE\");\n    address public owner;\n    mapping(string => bool) existingCertificates;\n    event mintSuccess(string _url);\n\n    Counters.Counter private _tokenIdCounter;\n\n    /// @dev the minting is puased by default, and should be unpaused as soon as BOT_ROLE is granted to other contracts\n    constructor() ERC721(\"Forest Guardians Certificate\", \"FGC\") {\n        _grantRole(DEFAULT_ADMIN_ROLE, msg.sender);\n        _grantRole(BOT_ROLE, msg.sender);\n        owner = msg.sender;\n        pause();\n    }\n\n    /// @dev A function to grant BOT_ROLE to other smart contracts of the Forest Guardians Project\n    /// @param role - only BOT_ROLE can be granted for now\n    /// @param account - destination address\n    function grantRole(bytes32 role, address account) public override onlyRole(DEFAULT_ADMIN_ROLE){\n        require(role == BOT_ROLE, \"Only BOT_ROLE can be granted to new users.\");\n        super.grantRole(role,account);\n    }\n\n    function _baseURI() internal pure override returns (string memory) {\n        return \"https://ipfs.io/ipfs/\";\n    }\n\n    function pause() public onlyRole(DEFAULT_ADMIN_ROLE) {\n        _pause();\n    }\n\n    function unpause() public onlyRole(DEFAULT_ADMIN_ROLE) {\n        _unpause();\n    }\n    \n    /// @dev standard function to mint a certificate, can be called from other contracts\n    /// @param _to - address of the user to mint certificate for\n    /// @param uri - string pointing to the certification generated and uploaded to ipfs\n    function mint(address _to, string memory uri) public onlyRole(BOT_ROLE) returns(bool) {\n        require(!existingCertificates[uri], \"The certificate already exists\");\n        uint256 tokenId = _tokenIdCounter.current();\n        _tokenIdCounter.increment();\n        existingCertificates[uri] = true;\n        _safeMint(_to, tokenId);\n        _setTokenURI(tokenId, uri);\n        return true;\n    }\n\n    /// @dev A function to test as well as generate certificates without a tradeable NFT\n    /// @param uri - string pointing to the certification generated and uploaded to ipfs\n    function safeMint(string memory uri) public onlyRole(DEFAULT_ADMIN_ROLE) returns(bool) {\n        require(!existingCertificates[uri], \"The certificate already exists\");\n        uint256 tokenId = _tokenIdCounter.current();\n        _tokenIdCounter.increment();\n        existingCertificates[uri] = true;\n        _safeMint(owner, tokenId);\n        _setTokenURI(tokenId, uri);\n        emit mintSuccess(string(abi.encode(_baseURI(), uri)));\n        return true;\n    }\n\n    /// @notice The generated (minted) certificate is not allowed to be transferred, it contains information on particular transaction and shows ownernship\n    /// @dev this prohibits certificate transfer and trade between users\n    function _beforeTokenTransfer(address from, address to, uint256 tokenId, uint256 batchSize)\n        internal\n        whenNotPaused\n        override\n    {\n        super._beforeTokenTransfer(from, to, tokenId, batchSize);\n        require(hasRole(BOT_ROLE, msg.sender) || to == address(0), \"Certificate can only be burned, not transferred.\");\n    }\n\n    // The following functions are overrides required by Solidity.\n\n    function _burn(uint256 tokenId) internal override(ERC721, ERC721URIStorage) {\n        super._burn(tokenId);\n    }\n\n    function tokenURI(uint256 tokenId)\n        public\n        view\n        override(ERC721, ERC721URIStorage)\n        returns (string memory)\n    {\n        return super.tokenURI(tokenId);\n    }\n\n    function supportsInterface(bytes4 interfaceId)\n        public\n        view\n        override(ERC721, ERC721URIStorage, AccessControl)\n        returns (bool)\n    {\n        return super.supportsInterface(interfaceId);\n    }\n}",
  "sourcePath": "/Users/alex/nft-corse/ftoken/contracts/FGCertificate.sol",
  "compiler": {
    "name": "solc",
    "version": "0.8.21+commit.d9974bed.Emscripten.clang"
  },
  "schemaVersion": "3.4.16",
  "updatedAt": "2023-09-28T17:14:38.408Z",
  "networkType": "ethereum",
  "devdoc": {
    "author": "Alexander Vardanyan",
    "custom:security-contact": "alexandervardanyan1@gmail.com",
    "events": {
      "Approval(address,address,uint256)": {
        "details": "Emitted when `owner` enables `approved` to manage the `tokenId` token."
      },
      "ApprovalForAll(address,address,bool)": {
        "details": "Emitted when `owner` enables or disables (`approved`) `operator` to manage all of its assets."
      },
      "BatchMetadataUpdate(uint256,uint256)": {
        "details": "This event emits when the metadata of a range of tokens is changed. So that the third-party platforms such as NFT market could timely update the images and related attributes of the NFTs."
      },
      "MetadataUpdate(uint256)": {
        "details": "This event emits when the metadata of a token is changed. So that the third-party platforms such as NFT market could timely update the images and related attributes of the NFT."
      },
      "Paused(address)": {
        "details": "Emitted when the pause is triggered by `account`."
      },
      "RoleAdminChanged(bytes32,bytes32,bytes32)": {
        "details": "Emitted when `newAdminRole` is set as ``role``'s admin role, replacing `previousAdminRole` `DEFAULT_ADMIN_ROLE` is the starting admin for all roles, despite {RoleAdminChanged} not being emitted signaling this. _Available since v3.1._"
      },
      "RoleGranted(bytes32,address,address)": {
        "details": "Emitted when `account` is granted `role`. `sender` is the account that originated the contract call, an admin role bearer except when using {AccessControl-_setupRole}."
      },
      "RoleRevoked(bytes32,address,address)": {
        "details": "Emitted when `account` is revoked `role`. `sender` is the account that originated the contract call:   - if using `revokeRole`, it is the admin role bearer   - if using `renounceRole`, it is the role bearer (i.e. `account`)"
      },
      "Transfer(address,address,uint256)": {
        "details": "Emitted when `tokenId` token is transferred from `from` to `to`."
      },
      "Unpaused(address)": {
        "details": "Emitted when the pause is lifted by `account`."
      }
    },
    "kind": "dev",
    "methods": {
      "approve(address,uint256)": {
        "details": "See {IERC721-approve}."
      },
      "balanceOf(address)": {
        "details": "See {IERC721-balanceOf}."
      },
      "burn(uint256)": {
        "details": "Burns `tokenId`. See {ERC721-_burn}. Requirements: - The caller must own `tokenId` or be an approved operator."
      },
      "constructor": {
        "details": "the minting is puased by default, and should be unpaused as soon as BOT_ROLE is granted to other contracts"
      },
      "getApproved(uint256)": {
        "details": "See {IERC721-getApproved}."
      },
      "getRoleAdmin(bytes32)": {
        "details": "Returns the admin role that controls `role`. See {grantRole} and {revokeRole}. To change a role's admin, use {_setRoleAdmin}."
      },
      "grantRole(bytes32,address)": {
        "details": "A function to grant BOT_ROLE to other smart contracts of the Forest Guardians Project",
        "params": {
          "account": "- destination address",
          "role": "- only BOT_ROLE can be granted for now"
        }
      },
      "hasRole(bytes32,address)": {
        "details": "Returns `true` if `account` has been granted `role`."
      },
      "isApprovedForAll(address,address)": {
        "details": "See {IERC721-isApprovedForAll}."
      },
      "mint(address,string)": {
        "details": "standard function to mint a certificate, can be called from other contracts",
        "params": {
          "_to": "- address of the user to mint certificate for",
          "uri": "- string pointing to the certification generated and uploaded to ipfs"
        }
      },
      "name()": {
        "details": "See {IERC721Metadata-name}."
      },
      "ownerOf(uint256)": {
        "details": "See {IERC721-ownerOf}."
      },
      "paused()": {
        "details": "Returns true if the contract is paused, and false otherwise."
      },
      "renounceRole(bytes32,address)": {
        "details": "Revokes `role` from the calling account. Roles are often managed via {grantRole} and {revokeRole}: this function's purpose is to provide a mechanism for accounts to lose their privileges if they are compromised (such as when a trusted device is misplaced). If the calling account had been revoked `role`, emits a {RoleRevoked} event. Requirements: - the caller must be `account`. May emit a {RoleRevoked} event."
      },
      "revokeRole(bytes32,address)": {
        "details": "Revokes `role` from `account`. If `account` had been granted `role`, emits a {RoleRevoked} event. Requirements: - the caller must have ``role``'s admin role. May emit a {RoleRevoked} event."
      },
      "safeMint(string)": {
        "details": "A function to test as well as generate certificates without a tradeable NFT",
        "params": {
          "uri": "- string pointing to the certification generated and uploaded to ipfs"
        }
      },
      "safeTransferFrom(address,address,uint256)": {
        "details": "See {IERC721-safeTransferFrom}."
      },
      "safeTransferFrom(address,address,uint256,bytes)": {
        "details": "See {IERC721-safeTransferFrom}."
      },
      "setApprovalForAll(address,bool)": {
        "details": "See {IERC721-setApprovalForAll}."
      },
      "symbol()": {
        "details": "See {IERC721Metadata-symbol}."
      },
      "transferFrom(address,address,uint256)": {
        "details": "See {IERC721-transferFrom}."
      }
    },
    "title": "Certificate for the Forest Guardians Project",
    "version": 1
  },
  "userdoc": {
    "kind": "user",
    "methods": {},
    "notice": "one of 3 contracts of the Forest Guardians Project",
    "version": 1
  }
}