{
  "contractName": "ForestGuardians",
  "abi": [
    {
      "inputs": [
        {
          "internalType": "address",
          "name": "_certificateAddress",
          "type": "address"
        }
      ],
      "stateMutability": "nonpayable",
      "type": "constructor"
    },
    {
      "anonymous": false,
      "inputs": [
        {
          "indexed": true,
          "internalType": "address",
          "name": "owner",
          "type": "address"
        },
        {
          "indexed": true,
          "internalType": "address",
          "name": "approved",
          "type": "address"
        },
        {
          "indexed": true,
          "internalType": "uint256",
          "name": "tokenId",
          "type": "uint256"
        }
      ],
      "name": "Approval",
      "type": "event"
    },
    {
      "anonymous": false,
      "inputs": [
        {
          "indexed": true,
          "internalType": "address",
          "name": "owner",
          "type": "address"
        },
        {
          "indexed": true,
          "internalType": "address",
          "name": "operator",
          "type": "address"
        },
        {
          "indexed": false,
          "internalType": "bool",
          "name": "approved",
          "type": "bool"
        }
      ],
      "name": "ApprovalForAll",
      "type": "event"
    },
    {
      "anonymous": false,
      "inputs": [
        {
          "indexed": false,
          "internalType": "uint256",
          "name": "_fromTokenId",
          "type": "uint256"
        },
        {
          "indexed": false,
          "internalType": "uint256",
          "name": "_toTokenId",
          "type": "uint256"
        }
      ],
      "name": "BatchMetadataUpdate",
      "type": "event"
    },
    {
      "anonymous": false,
      "inputs": [
        {
          "indexed": false,
          "internalType": "uint256",
          "name": "_tokenId",
          "type": "uint256"
        }
      ],
      "name": "MetadataUpdate",
      "type": "event"
    },
    {
      "anonymous": false,
      "inputs": [
        {
          "indexed": false,
          "internalType": "address",
          "name": "account",
          "type": "address"
        }
      ],
      "name": "Paused",
      "type": "event"
    },
    {
      "anonymous": false,
      "inputs": [
        {
          "indexed": true,
          "internalType": "bytes32",
          "name": "role",
          "type": "bytes32"
        },
        {
          "indexed": true,
          "internalType": "bytes32",
          "name": "previousAdminRole",
          "type": "bytes32"
        },
        {
          "indexed": true,
          "internalType": "bytes32",
          "name": "newAdminRole",
          "type": "bytes32"
        }
      ],
      "name": "RoleAdminChanged",
      "type": "event"
    },
    {
      "anonymous": false,
      "inputs": [
        {
          "indexed": true,
          "internalType": "bytes32",
          "name": "role",
          "type": "bytes32"
        },
        {
          "indexed": true,
          "internalType": "address",
          "name": "account",
          "type": "address"
        },
        {
          "indexed": true,
          "internalType": "address",
          "name": "sender",
          "type": "address"
        }
      ],
      "name": "RoleGranted",
      "type": "event"
    },
    {
      "anonymous": false,
      "inputs": [
        {
          "indexed": true,
          "internalType": "bytes32",
          "name": "role",
          "type": "bytes32"
        },
        {
          "indexed": true,
          "internalType": "address",
          "name": "account",
          "type": "address"
        },
        {
          "indexed": true,
          "internalType": "address",
          "name": "sender",
          "type": "address"
        }
      ],
      "name": "RoleRevoked",
      "type": "event"
    },
    {
      "anonymous": false,
      "inputs": [
        {
          "indexed": true,
          "internalType": "address",
          "name": "from",
          "type": "address"
        },
        {
          "indexed": true,
          "internalType": "address",
          "name": "to",
          "type": "address"
        },
        {
          "indexed": true,
          "internalType": "uint256",
          "name": "tokenId",
          "type": "uint256"
        }
      ],
      "name": "Transfer",
      "type": "event"
    },
    {
      "anonymous": false,
      "inputs": [
        {
          "indexed": false,
          "internalType": "address",
          "name": "account",
          "type": "address"
        }
      ],
      "name": "Unpaused",
      "type": "event"
    },
    {
      "anonymous": false,
      "inputs": [
        {
          "indexed": false,
          "internalType": "address",
          "name": "_owner",
          "type": "address"
        },
        {
          "indexed": false,
          "internalType": "string",
          "name": "nftURL",
          "type": "string"
        },
        {
          "indexed": false,
          "internalType": "string",
          "name": "certURL",
          "type": "string"
        }
      ],
      "name": "mintSuccess",
      "type": "event"
    },
    {
      "anonymous": false,
      "inputs": [
        {
          "indexed": false,
          "internalType": "string",
          "name": "newURL",
          "type": "string"
        }
      ],
      "name": "upgradeSuccess",
      "type": "event"
    },
    {
      "inputs": [],
      "name": "BOT_ROLE",
      "outputs": [
        {
          "internalType": "bytes32",
          "name": "",
          "type": "bytes32"
        }
      ],
      "stateMutability": "view",
      "type": "function",
      "constant": true
    },
    {
      "inputs": [],
      "name": "DEFAULT_ADMIN_ROLE",
      "outputs": [
        {
          "internalType": "bytes32",
          "name": "",
          "type": "bytes32"
        }
      ],
      "stateMutability": "view",
      "type": "function",
      "constant": true
    },
    {
      "inputs": [
        {
          "internalType": "address",
          "name": "to",
          "type": "address"
        },
        {
          "internalType": "uint256",
          "name": "tokenId",
          "type": "uint256"
        }
      ],
      "name": "approve",
      "outputs": [],
      "stateMutability": "nonpayable",
      "type": "function"
    },
    {
      "inputs": [
        {
          "internalType": "address",
          "name": "owner",
          "type": "address"
        }
      ],
      "name": "balanceOf",
      "outputs": [
        {
          "internalType": "uint256",
          "name": "",
          "type": "uint256"
        }
      ],
      "stateMutability": "view",
      "type": "function",
      "constant": true
    },
    {
      "inputs": [
        {
          "internalType": "uint256",
          "name": "tokenId",
          "type": "uint256"
        }
      ],
      "name": "getApproved",
      "outputs": [
        {
          "internalType": "address",
          "name": "",
          "type": "address"
        }
      ],
      "stateMutability": "view",
      "type": "function",
      "constant": true
    },
    {
      "inputs": [
        {
          "internalType": "bytes32",
          "name": "role",
          "type": "bytes32"
        }
      ],
      "name": "getRoleAdmin",
      "outputs": [
        {
          "internalType": "bytes32",
          "name": "",
          "type": "bytes32"
        }
      ],
      "stateMutability": "view",
      "type": "function",
      "constant": true
    },
    {
      "inputs": [
        {
          "internalType": "bytes32",
          "name": "role",
          "type": "bytes32"
        },
        {
          "internalType": "address",
          "name": "account",
          "type": "address"
        }
      ],
      "name": "hasRole",
      "outputs": [
        {
          "internalType": "bool",
          "name": "",
          "type": "bool"
        }
      ],
      "stateMutability": "view",
      "type": "function",
      "constant": true
    },
    {
      "inputs": [
        {
          "internalType": "address",
          "name": "owner",
          "type": "address"
        },
        {
          "internalType": "address",
          "name": "operator",
          "type": "address"
        }
      ],
      "name": "isApprovedForAll",
      "outputs": [
        {
          "internalType": "bool",
          "name": "",
          "type": "bool"
        }
      ],
      "stateMutability": "view",
      "type": "function",
      "constant": true
    },
    {
      "inputs": [],
      "name": "mintPrice",
      "outputs": [
        {
          "internalType": "uint256",
          "name": "",
          "type": "uint256"
        }
      ],
      "stateMutability": "view",
      "type": "function",
      "constant": true
    },
    {
      "inputs": [],
      "name": "name",
      "outputs": [
        {
          "internalType": "string",
          "name": "",
          "type": "string"
        }
      ],
      "stateMutability": "view",
      "type": "function",
      "constant": true
    },
    {
      "inputs": [
        {
          "internalType": "uint256",
          "name": "tokenId",
          "type": "uint256"
        }
      ],
      "name": "ownerOf",
      "outputs": [
        {
          "internalType": "address",
          "name": "",
          "type": "address"
        }
      ],
      "stateMutability": "view",
      "type": "function",
      "constant": true
    },
    {
      "inputs": [],
      "name": "paused",
      "outputs": [
        {
          "internalType": "bool",
          "name": "",
          "type": "bool"
        }
      ],
      "stateMutability": "view",
      "type": "function",
      "constant": true
    },
    {
      "inputs": [
        {
          "internalType": "bytes32",
          "name": "role",
          "type": "bytes32"
        },
        {
          "internalType": "address",
          "name": "account",
          "type": "address"
        }
      ],
      "name": "renounceRole",
      "outputs": [],
      "stateMutability": "nonpayable",
      "type": "function"
    },
    {
      "inputs": [
        {
          "internalType": "bytes32",
          "name": "role",
          "type": "bytes32"
        },
        {
          "internalType": "address",
          "name": "account",
          "type": "address"
        }
      ],
      "name": "revokeRole",
      "outputs": [],
      "stateMutability": "nonpayable",
      "type": "function"
    },
    {
      "inputs": [
        {
          "internalType": "uint256",
          "name": "tokenId",
          "type": "uint256"
        },
        {
          "internalType": "uint256",
          "name": "salePrice",
          "type": "uint256"
        }
      ],
      "name": "royaltyInfo",
      "outputs": [
        {
          "internalType": "address",
          "name": "",
          "type": "address"
        },
        {
          "internalType": "uint256",
          "name": "",
          "type": "uint256"
        }
      ],
      "stateMutability": "view",
      "type": "function",
      "constant": true
    },
    {
      "inputs": [
        {
          "internalType": "address",
          "name": "from",
          "type": "address"
        },
        {
          "internalType": "address",
          "name": "to",
          "type": "address"
        },
        {
          "internalType": "uint256",
          "name": "tokenId",
          "type": "uint256"
        }
      ],
      "name": "safeTransferFrom",
      "outputs": [],
      "stateMutability": "nonpayable",
      "type": "function"
    },
    {
      "inputs": [
        {
          "internalType": "address",
          "name": "from",
          "type": "address"
        },
        {
          "internalType": "address",
          "name": "to",
          "type": "address"
        },
        {
          "internalType": "uint256",
          "name": "tokenId",
          "type": "uint256"
        },
        {
          "internalType": "bytes",
          "name": "data",
          "type": "bytes"
        }
      ],
      "name": "safeTransferFrom",
      "outputs": [],
      "stateMutability": "nonpayable",
      "type": "function"
    },
    {
      "inputs": [
        {
          "internalType": "address",
          "name": "operator",
          "type": "address"
        },
        {
          "internalType": "bool",
          "name": "approved",
          "type": "bool"
        }
      ],
      "name": "setApprovalForAll",
      "outputs": [],
      "stateMutability": "nonpayable",
      "type": "function"
    },
    {
      "inputs": [],
      "name": "specialPrice",
      "outputs": [
        {
          "internalType": "uint256",
          "name": "",
          "type": "uint256"
        }
      ],
      "stateMutability": "view",
      "type": "function",
      "constant": true
    },
    {
      "inputs": [],
      "name": "symbol",
      "outputs": [
        {
          "internalType": "string",
          "name": "",
          "type": "string"
        }
      ],
      "stateMutability": "view",
      "type": "function",
      "constant": true
    },
    {
      "inputs": [
        {
          "internalType": "address",
          "name": "from",
          "type": "address"
        },
        {
          "internalType": "address",
          "name": "to",
          "type": "address"
        },
        {
          "internalType": "uint256",
          "name": "tokenId",
          "type": "uint256"
        }
      ],
      "name": "transferFrom",
      "outputs": [],
      "stateMutability": "nonpayable",
      "type": "function"
    },
    {
      "inputs": [],
      "name": "upgradePrice",
      "outputs": [
        {
          "internalType": "uint256",
          "name": "",
          "type": "uint256"
        }
      ],
      "stateMutability": "view",
      "type": "function",
      "constant": true
    },
    {
      "inputs": [
        {
          "internalType": "bytes32",
          "name": "role",
          "type": "bytes32"
        },
        {
          "internalType": "address",
          "name": "account",
          "type": "address"
        }
      ],
      "name": "grantRole",
      "outputs": [],
      "stateMutability": "nonpayable",
      "type": "function"
    },
    {
      "inputs": [
        {
          "internalType": "uint256",
          "name": "price",
          "type": "uint256"
        }
      ],
      "name": "setMintPrice",
      "outputs": [],
      "stateMutability": "nonpayable",
      "type": "function"
    },
    {
      "inputs": [
        {
          "internalType": "uint256",
          "name": "price",
          "type": "uint256"
        }
      ],
      "name": "setUpgradePrice",
      "outputs": [],
      "stateMutability": "nonpayable",
      "type": "function"
    },
    {
      "inputs": [
        {
          "internalType": "uint256",
          "name": "price",
          "type": "uint256"
        }
      ],
      "name": "setSpecialPrice",
      "outputs": [],
      "stateMutability": "nonpayable",
      "type": "function"
    },
    {
      "inputs": [
        {
          "internalType": "uint256",
          "name": "uri",
          "type": "uint256"
        }
      ],
      "name": "addSpecial",
      "outputs": [],
      "stateMutability": "nonpayable",
      "type": "function"
    },
    {
      "inputs": [],
      "name": "pause",
      "outputs": [],
      "stateMutability": "nonpayable",
      "type": "function"
    },
    {
      "inputs": [],
      "name": "unpause",
      "outputs": [],
      "stateMutability": "nonpayable",
      "type": "function"
    },
    {
      "inputs": [
        {
          "internalType": "uint256",
          "name": "tokenId",
          "type": "uint256"
        },
        {
          "components": [
            {
              "internalType": "bool",
              "name": "headgear",
              "type": "bool"
            },
            {
              "internalType": "bool",
              "name": "armor",
              "type": "bool"
            },
            {
              "internalType": "bool",
              "name": "item",
              "type": "bool"
            }
          ],
          "internalType": "struct ForestGuardians.upgradeStruct",
          "name": "data",
          "type": "tuple"
        }
      ],
      "name": "upgrade",
      "outputs": [
        {
          "internalType": "bool",
          "name": "",
          "type": "bool"
        }
      ],
      "stateMutability": "payable",
      "type": "function",
      "payable": true
    },
    {
      "inputs": [
        {
          "internalType": "uint256",
          "name": "tokenId",
          "type": "uint256"
        },
        {
          "components": [
            {
              "internalType": "bool",
              "name": "headgear",
              "type": "bool"
            },
            {
              "internalType": "bool",
              "name": "armor",
              "type": "bool"
            },
            {
              "internalType": "bool",
              "name": "item",
              "type": "bool"
            }
          ],
          "internalType": "struct ForestGuardians.upgradeStruct",
          "name": "data",
          "type": "tuple"
        }
      ],
      "name": "hideUnhide",
      "outputs": [
        {
          "internalType": "bool",
          "name": "",
          "type": "bool"
        }
      ],
      "stateMutability": "nonpayable",
      "type": "function"
    },
    {
      "inputs": [
        {
          "internalType": "uint256",
          "name": "ImageN",
          "type": "uint256"
        },
        {
          "internalType": "string",
          "name": "CertURI",
          "type": "string"
        }
      ],
      "name": "mint",
      "outputs": [
        {
          "internalType": "bool",
          "name": "",
          "type": "bool"
        }
      ],
      "stateMutability": "payable",
      "type": "function",
      "payable": true
    },
    {
      "inputs": [
        {
          "internalType": "uint256",
          "name": "ImageN",
          "type": "uint256"
        }
      ],
      "name": "safeMint",
      "outputs": [
        {
          "internalType": "bool",
          "name": "",
          "type": "bool"
        }
      ],
      "stateMutability": "nonpayable",
      "type": "function"
    },
    {
      "inputs": [
        {
          "internalType": "uint256",
          "name": "tokenId",
          "type": "uint256"
        }
      ],
      "name": "tokenURI",
      "outputs": [
        {
          "internalType": "string",
          "name": "",
          "type": "string"
        }
      ],
      "stateMutability": "view",
      "type": "function",
      "constant": true
    },
    {
      "inputs": [
        {
          "internalType": "bytes4",
          "name": "interfaceId",
          "type": "bytes4"
        }
      ],
      "name": "supportsInterface",
      "outputs": [
        {
          "internalType": "bool",
          "name": "",
          "type": "bool"
        }
      ],
      "stateMutability": "view",
      "type": "function",
      "constant": true
    }
  ],
  "bytecode": "0x608060405234801562000010575f80fd5b506040516200681538038062006815833981810160405281019062000036919062000946565b6040518060400160405280601081526020017f466f7265737420477561726469616e73000000000000000000000000000000008152506040518060400160405280600381526020017f46524700000000000000000000000000000000000000000000000000000000008152508160029081620000b3919062000bda565b508060039081620000c5919062000bda565b5050505f60095f6101000a81548160ff021916908315150217905550620000f55f801b336200019160201b60201c565b620001277f6d5c9827c1f410bbb61d3b2a0a34b6b30492d9a1fd38588edca7ec4562ab9c9b336200019160201b60201c565b80600f5f6101000a81548173ffffffffffffffffffffffffffffffffffffffff021916908373ffffffffffffffffffffffffffffffffffffffff1602179055506200017a33600a6200027d60201b60201c565b6200018a6200041a60201b60201c565b506200119b565b620001a382826200044160201b60201c565b62000279576001600a5f8481526020019081526020015f205f015f8373ffffffffffffffffffffffffffffffffffffffff1673ffffffffffffffffffffffffffffffffffffffff1681526020019081526020015f205f6101000a81548160ff0219169083151502179055506200021e620004a560201b60201c565b73ffffffffffffffffffffffffffffffffffffffff168173ffffffffffffffffffffffffffffffffffffffff16837f2f8788117e7eff1d82e926ec794901d17c78024a50270940304540a733656f0d60405160405180910390a45b5050565b6200028d620004ac60201b60201c565b6bffffffffffffffffffffffff16816bffffffffffffffffffffffff161115620002ee576040517f08c379a0000000000000000000000000000000000000000000000000000000008152600401620002e59062000d42565b60405180910390fd5b5f73ffffffffffffffffffffffffffffffffffffffff168273ffffffffffffffffffffffffffffffffffffffff16036200035f576040517f08c379a0000000000000000000000000000000000000000000000000000000008152600401620003569062000db0565b60405180910390fd5b60405180604001604052808373ffffffffffffffffffffffffffffffffffffffff168152602001826bffffffffffffffffffffffff168152505f80820151815f015f6101000a81548173ffffffffffffffffffffffffffffffffffffffff021916908373ffffffffffffffffffffffffffffffffffffffff1602179055506020820151815f0160146101000a8154816bffffffffffffffffffffffff02191690836bffffffffffffffffffffffff1602179055509050505050565b5f801b6200042e81620004b560201b60201c565b6200043e620004d960201b60201c565b50565b5f600a5f8481526020019081526020015f205f015f8373ffffffffffffffffffffffffffffffffffffffff1673ffffffffffffffffffffffffffffffffffffffff1681526020019081526020015f205f9054906101000a900460ff16905092915050565b5f33905090565b5f612710905090565b620004d681620004ca620004a560201b60201c565b6200054d60201b60201c565b50565b620004e9620005ee60201b60201c565b600160095f6101000a81548160ff0219169083151502179055507f62e78cea01bee320cd4e420270b5ea74000d11b0c9f74754ebdbfc544b05a25862000534620004a560201b60201c565b60405162000543919062000de1565b60405180910390a1565b6200055f82826200044160201b60201c565b620005ea5762000575816200064360201b60201c565b6200058a835f1c60206200067860201b60201c565b6040516020016200059d92919062000f02565b6040516020818303038152906040526040517f08c379a0000000000000000000000000000000000000000000000000000000008152600401620005e1919062000f93565b60405180910390fd5b5050565b620005fe620008cc60201b60201c565b1562000641576040517f08c379a0000000000000000000000000000000000000000000000000000000008152600401620006389062001003565b60405180910390fd5b565b6060620006718273ffffffffffffffffffffffffffffffffffffffff16601460ff166200067860201b60201c565b9050919050565b60605f60028360026200068c919062001050565b6200069891906200109a565b67ffffffffffffffff811115620006b457620006b362000980565b5b6040519080825280601f01601f191660200182016040528015620006e75781602001600182028036833780820191505090505b5090507f3000000000000000000000000000000000000000000000000000000000000000815f81518110620007215762000720620010d4565b5b60200101907effffffffffffffffffffffffffffffffffffffffffffffffffffffffffffff191690815f1a9053507f780000000000000000000000000000000000000000000000000000000000000081600181518110620007875762000786620010d4565b5b60200101907effffffffffffffffffffffffffffffffffffffffffffffffffffffffffffff191690815f1a9053505f6001846002620007c7919062001050565b620007d391906200109a565b90505b60018111156200087c577f3031323334353637383961626364656600000000000000000000000000000000600f861660108110620008195762000818620010d4565b5b1a60f81b828281518110620008335762000832620010d4565b5b60200101907effffffffffffffffffffffffffffffffffffffffffffffffffffffffffffff191690815f1a905350600485901c945080620008749062001101565b9050620007d6565b505f8414620008c2576040517f08c379a0000000000000000000000000000000000000000000000000000000008152600401620008b9906200117b565b60405180910390fd5b8091505092915050565b5f60095f9054906101000a900460ff16905090565b5f80fd5b5f73ffffffffffffffffffffffffffffffffffffffff82169050919050565b5f6200091082620008e5565b9050919050565b620009228162000904565b81146200092d575f80fd5b50565b5f81519050620009408162000917565b92915050565b5f602082840312156200095e576200095d620008e1565b5b5f6200096d8482850162000930565b91505092915050565b5f81519050919050565b7f4e487b71000000000000000000000000000000000000000000000000000000005f52604160045260245ffd5b7f4e487b71000000000000000000000000000000000000000000000000000000005f52602260045260245ffd5b5f6002820490506001821680620009f257607f821691505b60208210810362000a085762000a07620009ad565b5b50919050565b5f819050815f5260205f209050919050565b5f6020601f8301049050919050565b5f82821b905092915050565b5f6008830262000a6c7fffffffffffffffffffffffffffffffffffffffffffffffffffffffffffffffff8262000a2f565b62000a78868362000a2f565b95508019841693508086168417925050509392505050565b5f819050919050565b5f819050919050565b5f62000ac262000abc62000ab68462000a90565b62000a99565b62000a90565b9050919050565b5f819050919050565b62000add8362000aa2565b62000af562000aec8262000ac9565b84845462000a3b565b825550505050565b5f90565b62000b0b62000afd565b62000b1881848462000ad2565b505050565b5b8181101562000b3f5762000b335f8262000b01565b60018101905062000b1e565b5050565b601f82111562000b8e5762000b588162000a0e565b62000b638462000a20565b8101602085101562000b73578190505b62000b8b62000b828562000a20565b83018262000b1d565b50505b505050565b5f82821c905092915050565b5f62000bb05f198460080262000b93565b1980831691505092915050565b5f62000bca838362000b9f565b9150826002028217905092915050565b62000be58262000976565b67ffffffffffffffff81111562000c015762000c0062000980565b5b62000c0d8254620009da565b62000c1a82828562000b43565b5f60209050601f83116001811462000c50575f841562000c3b578287015190505b62000c47858262000bbd565b86555062000cb6565b601f19841662000c608662000a0e565b5f5b8281101562000c895784890151825560018201915060208501945060208101905062000c62565b8683101562000ca9578489015162000ca5601f89168262000b9f565b8355505b6001600288020188555050505b505050505050565b5f82825260208201905092915050565b7f455243323938313a20726f79616c7479206665652077696c6c206578636565645f8201527f2073616c65507269636500000000000000000000000000000000000000000000602082015250565b5f62000d2a602a8362000cbe565b915062000d378262000cce565b604082019050919050565b5f6020820190508181035f83015262000d5b8162000d1c565b9050919050565b7f455243323938313a20696e76616c6964207265636569766572000000000000005f82015250565b5f62000d9860198362000cbe565b915062000da58262000d62565b602082019050919050565b5f6020820190508181035f83015262000dc98162000d8a565b9050919050565b62000ddb8162000904565b82525050565b5f60208201905062000df65f83018462000dd0565b92915050565b5f81905092915050565b7f416363657373436f6e74726f6c3a206163636f756e74200000000000000000005f82015250565b5f62000e3c60178362000dfc565b915062000e498262000e06565b601782019050919050565b5f5b8381101562000e7357808201518184015260208101905062000e56565b5f8484015250505050565b5f62000e8a8262000976565b62000e96818562000dfc565b935062000ea881856020860162000e54565b80840191505092915050565b7f206973206d697373696e6720726f6c65200000000000000000000000000000005f82015250565b5f62000eea60118362000dfc565b915062000ef78262000eb4565b601182019050919050565b5f62000f0e8262000e2e565b915062000f1c828562000e7e565b915062000f298262000edc565b915062000f37828462000e7e565b91508190509392505050565b5f601f19601f8301169050919050565b5f62000f5f8262000976565b62000f6b818562000cbe565b935062000f7d81856020860162000e54565b62000f888162000f43565b840191505092915050565b5f6020820190508181035f83015262000fad818462000f53565b905092915050565b7f5061757361626c653a20706175736564000000000000000000000000000000005f82015250565b5f62000feb60108362000cbe565b915062000ff88262000fb5565b602082019050919050565b5f6020820190508181035f8301526200101c8162000fdd565b9050919050565b7f4e487b71000000000000000000000000000000000000000000000000000000005f52601160045260245ffd5b5f6200105c8262000a90565b9150620010698362000a90565b9250828202620010798162000a90565b9150828204841483151762001093576200109262001023565b5b5092915050565b5f620010a68262000a90565b9150620010b38362000a90565b9250828201905080821115620010ce57620010cd62001023565b5b92915050565b7f4e487b71000000000000000000000000000000000000000000000000000000005f52603260045260245ffd5b5f6200110d8262000a90565b91505f820362001122576200112162001023565b5b600182039050919050565b7f537472696e67733a20686578206c656e67746820696e73756666696369656e745f82015250565b5f6200116360208362000cbe565b915062001170826200112d565b602082019050919050565b5f6020820190508181035f830152620011948162001155565b9050919050565b61566c80620011a95f395ff3fe608060405260043610610203575f3560e01c80636817c76c11610117578063b15037741161009f578063d547741f1161006e578063d547741f14610768578063e985e9c514610790578063f4a0a528146107cc578063f7d5cb78146107f4578063fc805d941461083057610203565b8063b1503774146106b2578063b88d4fde146106dc578063bc90518c14610704578063c87b56dd1461072c57610203565b806391d14854116100e657806391d14854146105ca57806395d89b4114610606578063a217fddf14610630578063a22cb4651461065a578063a774d4841461068257610203565b80636817c76c1461051e57806370a082311461054857806377097fc8146105845780638456cb59146105b457610203565b80632a55205a1161019a5780633f4ba83a116101695780633f4ba83a1461045257806340eac6bc1461046857806342842e0e146104905780635c975abb146104b85780636352211e146104e257610203565b80632a55205a146103895780632f2ff15d146103c657806331c864e8146103ee57806336568abe1461042a57610203565b806323b872dd116101d657806323b872dd146102d1578063248a9ca3146102f9578063283dc3d114610335578063287ad39f1461035f57610203565b806301ffc9a71461020757806306fdde0314610243578063081812fc1461026d578063095ea7b3146102a9575b5f80fd5b348015610212575f80fd5b5061022d60048036038101906102289190613939565b610858565b60405161023a919061397e565b60405180910390f35b34801561024e575f80fd5b50610257610869565b6040516102649190613a21565b60405180910390f35b348015610278575f80fd5b50610293600480360381019061028e9190613a74565b6108f9565b6040516102a09190613ade565b60405180910390f35b3480156102b4575f80fd5b506102cf60048036038101906102ca9190613b21565b61093b565b005b3480156102dc575f80fd5b506102f760048036038101906102f29190613b5f565b610a51565b005b348015610304575f80fd5b5061031f600480360381019061031a9190613be2565b610ab1565b60405161032c9190613c1c565b60405180910390f35b348015610340575f80fd5b50610349610ace565b6040516103569190613c44565b60405180910390f35b34801561036a575f80fd5b50610373610ad4565b6040516103809190613c44565b60405180910390f35b348015610394575f80fd5b506103af60048036038101906103aa9190613c5d565b610ada565b6040516103bd929190613c9b565b60405180910390f35b3480156103d1575f80fd5b506103ec60048036038101906103e79190613cc2565b610cb5565b005b3480156103f9575f80fd5b50610414600480360381019061040f9190613a74565b610d25565b604051610421919061397e565b60405180910390f35b348015610435575f80fd5b50610450600480360381019061044b9190613cc2565b610f37565b005b34801561045d575f80fd5b50610466610fba565b005b348015610473575f80fd5b5061048e60048036038101906104899190613a74565b610fd1565b005b34801561049b575f80fd5b506104b660048036038101906104b19190613b5f565b610fe8565b005b3480156104c3575f80fd5b506104cc611007565b6040516104d9919061397e565b60405180910390f35b3480156104ed575f80fd5b5061050860048036038101906105039190613a74565b61101c565b6040516105159190613ade565b60405180910390f35b348015610529575f80fd5b506105326110a0565b60405161053f9190613c44565b60405180910390f35b348015610553575f80fd5b5061056e60048036038101906105699190613d00565b6110a6565b60405161057b9190613c44565b60405180910390f35b61059e60048036038101906105999190613e57565b61115a565b6040516105ab919061397e565b60405180910390f35b3480156105bf575f80fd5b506105c8611507565b005b3480156105d5575f80fd5b506105f060048036038101906105eb9190613cc2565b61151e565b6040516105fd919061397e565b60405180910390f35b348015610611575f80fd5b5061061a611582565b6040516106279190613a21565b60405180910390f35b34801561063b575f80fd5b50610644611612565b6040516106519190613c1c565b60405180910390f35b348015610665575f80fd5b50610680600480360381019061067b9190613edb565b611618565b005b61069c60048036038101906106979190613f7e565b61162e565b6040516106a9919061397e565b60405180910390f35b3480156106bd575f80fd5b506106c6611bf3565b6040516106d39190613c1c565b60405180910390f35b3480156106e7575f80fd5b5061070260048036038101906106fd919061405a565b611c17565b005b34801561070f575f80fd5b5061072a60048036038101906107259190613a74565b611c79565b005b348015610737575f80fd5b50610752600480360381019061074d9190613a74565b611cb2565b60405161075f9190613a21565b60405180910390f35b348015610773575f80fd5b5061078e60048036038101906107899190613cc2565b611cc4565b005b34801561079b575f80fd5b506107b660048036038101906107b191906140da565b611ce5565b6040516107c3919061397e565b60405180910390f35b3480156107d7575f80fd5b506107f260048036038101906107ed9190613a74565b611d73565b005b3480156107ff575f80fd5b5061081a60048036038101906108159190613f7e565b611d8a565b604051610827919061397e565b60405180910390f35b34801561083b575f80fd5b5061085660048036038101906108519190613a74565b61203e565b005b5f61086282612055565b9050919050565b60606002805461087890614145565b80601f01602080910402602001604051908101604052809291908181526020018280546108a490614145565b80156108ef5780601f106108c6576101008083540402835291602001916108ef565b820191905f5260205f20905b8154815290600101906020018083116108d257829003601f168201915b5050505050905090565b5f61090382612066565b60065f8381526020019081526020015f205f9054906101000a900473ffffffffffffffffffffffffffffffffffffffff169050919050565b5f6109458261101c565b90508073ffffffffffffffffffffffffffffffffffffffff168373ffffffffffffffffffffffffffffffffffffffff16036109b5576040517f08c379a00000000000000000000000000000000000000000000000000000000081526004016109ac906141e5565b60405180910390fd5b8073ffffffffffffffffffffffffffffffffffffffff166109d46120b1565b73ffffffffffffffffffffffffffffffffffffffff161480610a035750610a02816109fd6120b1565b611ce5565b5b610a42576040517f08c379a0000000000000000000000000000000000000000000000000000000008152600401610a3990614273565b60405180910390fd5b610a4c83836120b8565b505050565b610a62610a5c6120b1565b8261216e565b610aa1576040517f08c379a0000000000000000000000000000000000000000000000000000000008152600401610a9890614301565b60405180910390fd5b610aac838383612202565b505050565b5f600a5f8381526020019081526020015f20600101549050919050565b600e5481565b600d5481565b5f805f60015f8681526020019081526020015f206040518060400160405290815f82015f9054906101000a900473ffffffffffffffffffffffffffffffffffffffff1673ffffffffffffffffffffffffffffffffffffffff1673ffffffffffffffffffffffffffffffffffffffff1681526020015f820160149054906101000a90046bffffffffffffffffffffffff166bffffffffffffffffffffffff166bffffffffffffffffffffffff168152505090505f73ffffffffffffffffffffffffffffffffffffffff16815f015173ffffffffffffffffffffffffffffffffffffffff1603610c62575f6040518060400160405290815f82015f9054906101000a900473ffffffffffffffffffffffffffffffffffffffff1673ffffffffffffffffffffffffffffffffffffffff1673ffffffffffffffffffffffffffffffffffffffff1681526020015f820160149054906101000a90046bffffffffffffffffffffffff166bffffffffffffffffffffffff166bffffffffffffffffffffffff168152505090505b5f610c6b6124ee565b6bffffffffffffffffffffffff1682602001516bffffffffffffffffffffffff1686610c97919061434c565b610ca191906143ba565b9050815f0151819350935050509250929050565b7f6d5c9827c1f410bbb61d3b2a0a34b6b30492d9a1fd38588edca7ec4562ab9c9b8214610d17576040517f08c379a0000000000000000000000000000000000000000000000000000000008152600401610d0e9061445a565b60405180910390fd5b610d2182826124f7565b5050565b5f805f1b610d3281612518565b60105f8481526020019081526020015f205f9054906101000a900460ff1615610d90576040517f08c379a0000000000000000000000000000000000000000000000000000000008152600401610d87906144c2565b60405180910390fd5b5f610d9b600b61252c565b9050610da7600b612538565b600160105f8681526020019081526020015f205f6101000a81548160ff0219169083151502179055508360125f8381526020019081526020015f2081905550610df0338261254c565b60115f8581526020019081526020015f205f9054906101000a900460ff16610e615760405180606001604052806001815260200160018152602001600181525060135f8381526020019081526020015f205f820151815f015560208201518160010155604082015181600201559050505b5f610e6b85612569565b60115f8781526020019081526020015f205f9054906101000a900460ff16610ec8576040518060400160405280600981526020017f2d3131312e6a736f6e0000000000000000000000000000000000000000000000815250610eff565b6040518060400160405280600581526020017f2e6a736f6e0000000000000000000000000000000000000000000000000000008152505b604051602001610f1092919061451a565b6040516020818303038152906040529050610f2b8282612633565b60019350505050919050565b610f3f6120b1565b73ffffffffffffffffffffffffffffffffffffffff168173ffffffffffffffffffffffffffffffffffffffff1614610fac576040517f08c379a0000000000000000000000000000000000000000000000000000000008152600401610fa3906145ad565b60405180910390fd5b610fb682826126d5565b5050565b5f801b610fc681612518565b610fce6127b0565b50565b5f801b610fdd81612518565b81600e819055505050565b61100283838360405180602001604052805f815250611c17565b505050565b5f60095f9054906101000a900460ff16905090565b5f8061102783612811565b90505f73ffffffffffffffffffffffffffffffffffffffff168173ffffffffffffffffffffffffffffffffffffffff1603611097576040517f08c379a000000000000000000000000000000000000000000000000000000000815260040161108e90614615565b60405180910390fd5b80915050919050565b600c5481565b5f8073ffffffffffffffffffffffffffffffffffffffff168273ffffffffffffffffffffffffffffffffffffffff1603611115576040517f08c379a000000000000000000000000000000000000000000000000000000000815260040161110c906146a3565b60405180910390fd5b60055f8373ffffffffffffffffffffffffffffffffffffffff1673ffffffffffffffffffffffffffffffffffffffff1681526020019081526020015f20549050919050565b5f60115f8481526020019081526020015f205f9054906101000a900460ff1661118557600c54611189565b600e545b3410156111cb576040517f08c379a00000000000000000000000000000000000000000000000000000000081526004016111c29061470b565b60405180910390fd5b60105f8481526020019081526020015f205f9054906101000a900460ff1615611229576040517f08c379a000000000000000000000000000000000000000000000000000000000815260040161122090614773565b60405180910390fd5b5f611234600b61252c565b9050611240600b612538565b600160105f8681526020019081526020015f205f6101000a81548160ff0219169083151502179055508360125f8381526020019081526020015f2081905550611289338261254c565b60115f8581526020019081526020015f205f9054906101000a900460ff166112fa5760405180606001604052806001815260200160018152602001600181525060135f8381526020019081526020015f205f820151815f015560208201518160010155604082015181600201559050505b5f61130485612569565b60115f8781526020019081526020015f205f9054906101000a900460ff16611361576040518060400160405280600981526020017f2d3131312e6a736f6e0000000000000000000000000000000000000000000000815250611398565b6040518060400160405280600581526020017f2e6a736f6e0000000000000000000000000000000000000000000000000000008152505b6040516020016113a992919061451a565b60405160208183030381529060405290506113c48282612633565b600f5f9054906101000a900473ffffffffffffffffffffffffffffffffffffffff1673ffffffffffffffffffffffffffffffffffffffff1663d0def52133866040518363ffffffff1660e01b8152600401611420929190614791565b6020604051808303815f875af115801561143c573d5f803e3d5ffd5b505050506040513d601f19601f8201168201806040525081019061146091906147d3565b156114fb577fb8797aa152a7e6452661e174fe7c6497cffef88e2ae195258a18077d91c22d0d3361148f61284a565b836040516020016114a192919061451a565b6040516020818303038152906040526114b861284a565b876040516020016114ca9291906147fe565b6040516020818303038152906040526040516114e893929190614833565b60405180910390a1600192505050611501565b5f925050505b92915050565b5f801b61151381612518565b61151b612887565b50565b5f600a5f8481526020019081526020015f205f015f8373ffffffffffffffffffffffffffffffffffffffff1673ffffffffffffffffffffffffffffffffffffffff1681526020019081526020015f205f9054906101000a900460ff16905092915050565b60606003805461159190614145565b80601f01602080910402602001604051908101604052809291908181526020018280546115bd90614145565b80156116085780601f106115df57610100808354040283529160200191611608565b820191905f5260205f20905b8154815290600101906020018083116115eb57829003601f168201915b5050505050905090565b5f801b81565b61162a6116236120b1565b83836128e9565b5050565b5f82825f60125f8481526020019081526020015f205403611684576040517f08c379a000000000000000000000000000000000000000000000000000000000815260040161167b906148c0565b60405180910390fd5b3373ffffffffffffffffffffffffffffffffffffffff166116a48361101c565b73ffffffffffffffffffffffffffffffffffffffff16146116fa576040517f08c379a00000000000000000000000000000000000000000000000000000000081526004016116f19061494e565b60405180910390fd5b6003816020015161170b575f61170e565b60015b60ff1660135f8581526020019081526020015f2060010154611730919061496c565b1115611771576040517f08c379a000000000000000000000000000000000000000000000000000000000815260040161176890614a0f565b60405180910390fd5b6003815f0151611781575f611784565b60015b60ff1660135f8581526020019081526020015f205f01546117a5919061496c565b11156117e6576040517f08c379a00000000000000000000000000000000000000000000000000000000081526004016117dd90614a9d565b60405180910390fd5b600381604001516117f7575f6117fa565b60015b60ff1660135f8581526020019081526020015f206002015461181c919061496c565b111561185d576040517f08c379a000000000000000000000000000000000000000000000000000000000815260040161185490614b2b565b60405180910390fd5b60115f60125f8581526020019081526020015f205481526020019081526020015f205f9054906101000a900460ff16156118cc576040517f08c379a00000000000000000000000000000000000000000000000000000000081526004016118c390614bb9565b60405180910390fd5b34600d5460135f8581526020019081526020015f206002015483604001516118f4575f6118f7565b60015b60ff16611904919061434c565b60135f8681526020019081526020015f205f0154845f0151611926575f611929565b60015b60ff16611936919061434c565b60135f8781526020019081526020015f2060010154856020015161195a575f61195d565b60015b60ff1661196a919061434c565b611974919061496c565b61197e919061496c565b611988919061434c565b146119c8576040517f08c379a00000000000000000000000000000000000000000000000000000000081526004016119bf90614c21565b60405180910390fd5b5f60125f8781526020019081526020015f205490505f60135f8881526020019081526020015f206040518060600160405290815f82015481526020016001820154815260200160028201548152505090505f611a2383612569565b611a4d835f0151895f0151611a38575f611a3b565b60015b60ff16611a48919061496c565b612569565b611a7984602001518a60200151611a64575f611a67565b60015b60ff16611a74919061496c565b612569565b611aa585604001518b60400151611a90575f611a93565b60015b60ff16611aa0919061496c565b612569565b604051602001611ab89493929190614cd3565b6040516020818303038152906040529050611ad38882612633565b6040518060600160405280835f0151895f0151611af0575f611af3565b60015b60ff16611b00919061496c565b815260200183602001518960200151611b19575f611b1c565b60015b60ff16611b29919061496c565b815260200183604001518960400151611b42575f611b45565b60015b60ff16611b52919061496c565b81525060135f8a81526020019081526020015f205f820151815f015560208201518160010155604082015181600201559050507fd96a820840db8750a927c038427a79ff9af53f5d723a7ecc54ea7c90ecc7819e611bae61284a565b82604051602001611bc092919061451a565b604051602081830303815290604052604051611bdc9190613a21565b60405180910390a160019550505050505092915050565b7f6d5c9827c1f410bbb61d3b2a0a34b6b30492d9a1fd38588edca7ec4562ab9c9b81565b611c28611c226120b1565b8361216e565b611c67576040517f08c379a0000000000000000000000000000000000000000000000000000000008152600401611c5e90614301565b60405180910390fd5b611c7384848484612a50565b50505050565b5f801b611c8581612518565b600160115f8481526020019081526020015f205f6101000a81548160ff0219169083151502179055505050565b6060611cbd82612aac565b9050919050565b611ccd82610ab1565b611cd681612518565b611ce083836126d5565b505050565b5f60075f8473ffffffffffffffffffffffffffffffffffffffff1673ffffffffffffffffffffffffffffffffffffffff1681526020019081526020015f205f8373ffffffffffffffffffffffffffffffffffffffff1673ffffffffffffffffffffffffffffffffffffffff1681526020019081526020015f205f9054906101000a900460ff16905092915050565b5f801b611d7f81612518565b81600c819055505050565b5f82825f60125f8481526020019081526020015f205403611de0576040517f08c379a0000000000000000000000000000000000000000000000000000000008152600401611dd7906148c0565b60405180910390fd5b3373ffffffffffffffffffffffffffffffffffffffff16611e008361101c565b73ffffffffffffffffffffffffffffffffffffffff1614611e56576040517f08c379a0000000000000000000000000000000000000000000000000000000008152600401611e4d9061494e565b60405180910390fd5b60115f60125f8581526020019081526020015f205481526020019081526020015f205f9054906101000a900460ff1615611ec5576040517f08c379a0000000000000000000000000000000000000000000000000000000008152600401611ebc90614bb9565b60405180910390fd5b5f60125f8781526020019081526020015f205490505f60135f8881526020019081526020015f206040518060600160405290815f82015481526020016001820154815260200160028201548152505090505f611f2083612569565b611f4a835f0151895f0151611f35575f611f38565b60015b60ff16611f45919061434c565b612569565b611f7684602001518a60200151611f61575f611f64565b60015b60ff16611f71919061434c565b612569565b611fa285604001518b60400151611f8d575f611f90565b60015b60ff16611f9d919061434c565b612569565b604051602001611fb59493929190614cd3565b6040516020818303038152906040529050611fd08882612633565b7fd96a820840db8750a927c038427a79ff9af53f5d723a7ecc54ea7c90ecc7819e611ff961284a565b8260405160200161200b92919061451a565b6040516020818303038152906040526040516120279190613a21565b60405180910390a160019550505050505092915050565b5f801b61204a81612518565b81600d819055505050565b5f61205f82612bb6565b9050919050565b61206f81612c2f565b6120ae576040517f08c379a00000000000000000000000000000000000000000000000000000000081526004016120a590614615565b60405180910390fd5b50565b5f33905090565b8160065f8381526020019081526020015f205f6101000a81548173ffffffffffffffffffffffffffffffffffffffff021916908373ffffffffffffffffffffffffffffffffffffffff160217905550808273ffffffffffffffffffffffffffffffffffffffff166121288361101c565b73ffffffffffffffffffffffffffffffffffffffff167f8c5be1e5ebec7d5bd14f71427d1e84f3dd0314c0f7b2291e5b200ac8c7c3b92560405160405180910390a45050565b5f806121798361101c565b90508073ffffffffffffffffffffffffffffffffffffffff168473ffffffffffffffffffffffffffffffffffffffff1614806121bb57506121ba8185611ce5565b5b806121f957508373ffffffffffffffffffffffffffffffffffffffff166121e1846108f9565b73ffffffffffffffffffffffffffffffffffffffff16145b91505092915050565b8273ffffffffffffffffffffffffffffffffffffffff166122228261101c565b73ffffffffffffffffffffffffffffffffffffffff1614612278576040517f08c379a000000000000000000000000000000000000000000000000000000000815260040161226f90614d96565b60405180910390fd5b5f73ffffffffffffffffffffffffffffffffffffffff168273ffffffffffffffffffffffffffffffffffffffff16036122e6576040517f08c379a00000000000000000000000000000000000000000000000000000000081526004016122dd90614e24565b60405180910390fd5b6122f38383836001612c6f565b8273ffffffffffffffffffffffffffffffffffffffff166123138261101c565b73ffffffffffffffffffffffffffffffffffffffff1614612369576040517f08c379a000000000000000000000000000000000000000000000000000000000815260040161236090614d96565b60405180910390fd5b60065f8281526020019081526020015f205f6101000a81549073ffffffffffffffffffffffffffffffffffffffff0219169055600160055f8573ffffffffffffffffffffffffffffffffffffffff1673ffffffffffffffffffffffffffffffffffffffff1681526020019081526020015f205f8282540392505081905550600160055f8473ffffffffffffffffffffffffffffffffffffffff1673ffffffffffffffffffffffffffffffffffffffff1681526020019081526020015f205f82825401925050819055508160045f8381526020019081526020015f205f6101000a81548173ffffffffffffffffffffffffffffffffffffffff021916908373ffffffffffffffffffffffffffffffffffffffff160217905550808273ffffffffffffffffffffffffffffffffffffffff168473ffffffffffffffffffffffffffffffffffffffff167fddf252ad1be2c89b69c2b068fc378daa952ba7f163c4a11628f55a4df523b3ef60405160405180910390a46124e98383836001612c89565b505050565b5f612710905090565b61250082610ab1565b61250981612518565b6125138383612c8f565b505050565b612529816125246120b1565b612d6a565b50565b5f815f01549050919050565b6001815f015f828254019250508190555050565b612565828260405180602001604052805f815250612dee565b5050565b60605f600161257784612e48565b0190505f8167ffffffffffffffff81111561259557612594613d33565b5b6040519080825280601f01601f1916602001820160405280156125c75781602001600182028036833780820191505090505b5090505f82602001820190505b600115612628578080600190039150507f3031323334353637383961626364656600000000000000000000000000000000600a86061a8153600a858161261d5761261c61438d565b5b0494505f85036125d4575b819350505050919050565b61263c82612c2f565b61267b576040517f08c379a000000000000000000000000000000000000000000000000000000000815260040161267290614eb2565b60405180910390fd5b8060085f8481526020019081526020015f209081612699919061506d565b507ff8e1a15aba9398e019f0b49df1a4fde98ee17ae345cb5f6b5e2c27f5033e8ce7826040516126c99190613c44565b60405180910390a15050565b6126df828261151e565b156127ac575f600a5f8481526020019081526020015f205f015f8373ffffffffffffffffffffffffffffffffffffffff1673ffffffffffffffffffffffffffffffffffffffff1681526020019081526020015f205f6101000a81548160ff0219169083151502179055506127516120b1565b73ffffffffffffffffffffffffffffffffffffffff168173ffffffffffffffffffffffffffffffffffffffff16837ff6391f5c32d9c69d2a47ea670b442974b53935d1edc7fd64eb21e047a839171b60405160405180910390a45b5050565b6127b8612f99565b5f60095f6101000a81548160ff0219169083151502179055507f5db9ee0a495bf2e6ff9c91a7834c1ba4fdd244a5e8aa4e537bd38aeae4b073aa6127fa6120b1565b6040516128079190613ade565b60405180910390a1565b5f60045f8381526020019081526020015f205f9054906101000a900473ffffffffffffffffffffffffffffffffffffffff169050919050565b60606040518060400160405280601581526020017f68747470733a2f2f697066732e696f2f697066732f0000000000000000000000815250905090565b61288f612fe2565b600160095f6101000a81548160ff0219169083151502179055507f62e78cea01bee320cd4e420270b5ea74000d11b0c9f74754ebdbfc544b05a2586128d26120b1565b6040516128df9190613ade565b60405180910390a1565b8173ffffffffffffffffffffffffffffffffffffffff168373ffffffffffffffffffffffffffffffffffffffff1603612957576040517f08c379a000000000000000000000000000000000000000000000000000000000815260040161294e90615186565b60405180910390fd5b8060075f8573ffffffffffffffffffffffffffffffffffffffff1673ffffffffffffffffffffffffffffffffffffffff1681526020019081526020015f205f8473ffffffffffffffffffffffffffffffffffffffff1673ffffffffffffffffffffffffffffffffffffffff1681526020019081526020015f205f6101000a81548160ff0219169083151502179055508173ffffffffffffffffffffffffffffffffffffffff168373ffffffffffffffffffffffffffffffffffffffff167f17307eab39ab6107e8899845ad3d59bd9653f200f220920489ca2b5937696c3183604051612a43919061397e565b60405180910390a3505050565b612a5b848484612202565b612a678484848461302c565b612aa6576040517f08c379a0000000000000000000000000000000000000000000000000000000008152600401612a9d90615214565b60405180910390fd5b50505050565b6060612ab782612066565b5f60085f8481526020019081526020015f208054612ad490614145565b80601f0160208091040260200160405190810160405280929190818152602001828054612b0090614145565b8015612b4b5780601f10612b2257610100808354040283529160200191612b4b565b820191905f5260205f20905b815481529060010190602001808311612b2e57829003601f168201915b505050505090505f612b5b61284a565b90505f815103612b6f578192505050612bb1565b5f82511115612ba3578082604051602001612b8b92919061451a565b60405160208183030381529060405292505050612bb1565b612bac846131ae565b925050505b919050565b5f7f7965db0b000000000000000000000000000000000000000000000000000000007bffffffffffffffffffffffffffffffffffffffffffffffffffffffff1916827bffffffffffffffffffffffffffffffffffffffffffffffffffffffff19161480612c285750612c2782613213565b5b9050919050565b5f8073ffffffffffffffffffffffffffffffffffffffff16612c5083612811565b73ffffffffffffffffffffffffffffffffffffffff1614159050919050565b612c77612fe2565b612c8384848484613273565b50505050565b50505050565b612c99828261151e565b612d66576001600a5f8481526020019081526020015f205f015f8373ffffffffffffffffffffffffffffffffffffffff1673ffffffffffffffffffffffffffffffffffffffff1681526020019081526020015f205f6101000a81548160ff021916908315150217905550612d0b6120b1565b73ffffffffffffffffffffffffffffffffffffffff168173ffffffffffffffffffffffffffffffffffffffff16837f2f8788117e7eff1d82e926ec794901d17c78024a50270940304540a733656f0d60405160405180910390a45b5050565b612d74828261151e565b612dea57612d8181613279565b612d8e835f1c60206132a6565b604051602001612d9f9291906152c6565b6040516020818303038152906040526040517f08c379a0000000000000000000000000000000000000000000000000000000008152600401612de19190613a21565b60405180910390fd5b5050565b612df883836134db565b612e045f84848461302c565b612e43576040517f08c379a0000000000000000000000000000000000000000000000000000000008152600401612e3a90615214565b60405180910390fd5b505050565b5f805f90507a184f03e93ff9f4daa797ed6e38ed64bf6a1f0100000000000000008310612ea4577a184f03e93ff9f4daa797ed6e38ed64bf6a1f0100000000000000008381612e9a57612e9961438d565b5b0492506040810190505b6d04ee2d6d415b85acef81000000008310612ee1576d04ee2d6d415b85acef81000000008381612ed757612ed661438d565b5b0492506020810190505b662386f26fc100008310612f1057662386f26fc100008381612f0657612f0561438d565b5b0492506010810190505b6305f5e1008310612f39576305f5e1008381612f2f57612f2e61438d565b5b0492506008810190505b6127108310612f5e576127108381612f5457612f5361438d565b5b0492506004810190505b60648310612f815760648381612f7757612f7661438d565b5b0492506002810190505b600a8310612f90576001810190505b80915050919050565b612fa1611007565b612fe0576040517f08c379a0000000000000000000000000000000000000000000000000000000008152600401612fd790615349565b60405180910390fd5b565b612fea611007565b1561302a576040517f08c379a0000000000000000000000000000000000000000000000000000000008152600401613021906153b1565b60405180910390fd5b565b5f61304c8473ffffffffffffffffffffffffffffffffffffffff166136ee565b156131a1578373ffffffffffffffffffffffffffffffffffffffff1663150b7a026130756120b1565b8786866040518563ffffffff1660e01b81526004016130979493929190615421565b6020604051808303815f875af19250505080156130d257506040513d601f19601f820116820180604052508101906130cf919061547f565b60015b613151573d805f8114613100576040519150601f19603f3d011682016040523d82523d5f602084013e613105565b606091505b505f815103613149576040517f08c379a000000000000000000000000000000000000000000000000000000000815260040161314090615214565b60405180910390fd5b805181602001fd5b63150b7a0260e01b7bffffffffffffffffffffffffffffffffffffffffffffffffffffffff1916817bffffffffffffffffffffffffffffffffffffffffffffffffffffffff1916149150506131a6565b600190505b949350505050565b60606131b982612066565b5f6131c261284a565b90505f8151116131e05760405180602001604052805f81525061320b565b806131ea84612569565b6040516020016131fb92919061451a565b6040516020818303038152906040525b915050919050565b5f634906490660e01b7bffffffffffffffffffffffffffffffffffffffffffffffffffffffff1916827bffffffffffffffffffffffffffffffffffffffffffffffffffffffff1916148061326c575061326b82613710565b5b9050919050565b50505050565b606061329f8273ffffffffffffffffffffffffffffffffffffffff16601460ff166132a6565b9050919050565b60605f60028360026132b8919061434c565b6132c2919061496c565b67ffffffffffffffff8111156132db576132da613d33565b5b6040519080825280601f01601f19166020018201604052801561330d5781602001600182028036833780820191505090505b5090507f3000000000000000000000000000000000000000000000000000000000000000815f81518110613344576133436154aa565b5b60200101907effffffffffffffffffffffffffffffffffffffffffffffffffffffffffffff191690815f1a9053507f7800000000000000000000000000000000000000000000000000000000000000816001815181106133a7576133a66154aa565b5b60200101907effffffffffffffffffffffffffffffffffffffffffffffffffffffffffffff191690815f1a9053505f60018460026133e5919061434c565b6133ef919061496c565b90505b600181111561348e577f3031323334353637383961626364656600000000000000000000000000000000600f861660108110613431576134306154aa565b5b1a60f81b828281518110613448576134476154aa565b5b60200101907effffffffffffffffffffffffffffffffffffffffffffffffffffffffffffff191690815f1a905350600485901c945080613487906154d7565b90506133f2565b505f84146134d1576040517f08c379a00000000000000000000000000000000000000000000000000000000081526004016134c890615548565b60405180910390fd5b8091505092915050565b5f73ffffffffffffffffffffffffffffffffffffffff168273ffffffffffffffffffffffffffffffffffffffff1603613549576040517f08c379a0000000000000000000000000000000000000000000000000000000008152600401613540906155b0565b60405180910390fd5b61355281612c2f565b15613592576040517f08c379a000000000000000000000000000000000000000000000000000000000815260040161358990615618565b60405180910390fd5b61359f5f83836001612c6f565b6135a881612c2f565b156135e8576040517f08c379a00000000000000000000000000000000000000000000000000000000081526004016135df90615618565b60405180910390fd5b600160055f8473ffffffffffffffffffffffffffffffffffffffff1673ffffffffffffffffffffffffffffffffffffffff1681526020019081526020015f205f82825401925050819055508160045f8381526020019081526020015f205f6101000a81548173ffffffffffffffffffffffffffffffffffffffff021916908373ffffffffffffffffffffffffffffffffffffffff160217905550808273ffffffffffffffffffffffffffffffffffffffff165f73ffffffffffffffffffffffffffffffffffffffff167fddf252ad1be2c89b69c2b068fc378daa952ba7f163c4a11628f55a4df523b3ef60405160405180910390a46136ea5f83836001612c89565b5050565b5f808273ffffffffffffffffffffffffffffffffffffffff163b119050919050565b5f7f80ac58cd000000000000000000000000000000000000000000000000000000007bffffffffffffffffffffffffffffffffffffffffffffffffffffffff1916827bffffffffffffffffffffffffffffffffffffffffffffffffffffffff191614806137da57507f5b5e139f000000000000000000000000000000000000000000000000000000007bffffffffffffffffffffffffffffffffffffffffffffffffffffffff1916827bffffffffffffffffffffffffffffffffffffffffffffffffffffffff1916145b806137ea57506137e9826137f1565b5b9050919050565b5f7f2a55205a000000000000000000000000000000000000000000000000000000007bffffffffffffffffffffffffffffffffffffffffffffffffffffffff1916827bffffffffffffffffffffffffffffffffffffffffffffffffffffffff1916148061386357506138628261386a565b5b9050919050565b5f7f01ffc9a7000000000000000000000000000000000000000000000000000000007bffffffffffffffffffffffffffffffffffffffffffffffffffffffff1916827bffffffffffffffffffffffffffffffffffffffffffffffffffffffff1916149050919050565b5f604051905090565b5f80fd5b5f80fd5b5f7fffffffff0000000000000000000000000000000000000000000000000000000082169050919050565b613918816138e4565b8114613922575f80fd5b50565b5f813590506139338161390f565b92915050565b5f6020828403121561394e5761394d6138dc565b5b5f61395b84828501613925565b91505092915050565b5f8115159050919050565b61397881613964565b82525050565b5f6020820190506139915f83018461396f565b92915050565b5f81519050919050565b5f82825260208201905092915050565b5f5b838110156139ce5780820151818401526020810190506139b3565b5f8484015250505050565b5f601f19601f8301169050919050565b5f6139f382613997565b6139fd81856139a1565b9350613a0d8185602086016139b1565b613a16816139d9565b840191505092915050565b5f6020820190508181035f830152613a3981846139e9565b905092915050565b5f819050919050565b613a5381613a41565b8114613a5d575f80fd5b50565b5f81359050613a6e81613a4a565b92915050565b5f60208284031215613a8957613a886138dc565b5b5f613a9684828501613a60565b91505092915050565b5f73ffffffffffffffffffffffffffffffffffffffff82169050919050565b5f613ac882613a9f565b9050919050565b613ad881613abe565b82525050565b5f602082019050613af15f830184613acf565b92915050565b613b0081613abe565b8114613b0a575f80fd5b50565b5f81359050613b1b81613af7565b92915050565b5f8060408385031215613b3757613b366138dc565b5b5f613b4485828601613b0d565b9250506020613b5585828601613a60565b9150509250929050565b5f805f60608486031215613b7657613b756138dc565b5b5f613b8386828701613b0d565b9350506020613b9486828701613b0d565b9250506040613ba586828701613a60565b9150509250925092565b5f819050919050565b613bc181613baf565b8114613bcb575f80fd5b50565b5f81359050613bdc81613bb8565b92915050565b5f60208284031215613bf757613bf66138dc565b5b5f613c0484828501613bce565b91505092915050565b613c1681613baf565b82525050565b5f602082019050613c2f5f830184613c0d565b92915050565b613c3e81613a41565b82525050565b5f602082019050613c575f830184613c35565b92915050565b5f8060408385031215613c7357613c726138dc565b5b5f613c8085828601613a60565b9250506020613c9185828601613a60565b9150509250929050565b5f604082019050613cae5f830185613acf565b613cbb6020830184613c35565b9392505050565b5f8060408385031215613cd857613cd76138dc565b5b5f613ce585828601613bce565b9250506020613cf685828601613b0d565b9150509250929050565b5f60208284031215613d1557613d146138dc565b5b5f613d2284828501613b0d565b91505092915050565b5f80fd5b5f80fd5b7f4e487b71000000000000000000000000000000000000000000000000000000005f52604160045260245ffd5b613d69826139d9565b810181811067ffffffffffffffff82111715613d8857613d87613d33565b5b80604052505050565b5f613d9a6138d3565b9050613da68282613d60565b919050565b5f67ffffffffffffffff821115613dc557613dc4613d33565b5b613dce826139d9565b9050602081019050919050565b828183375f83830152505050565b5f613dfb613df684613dab565b613d91565b905082815260208101848484011115613e1757613e16613d2f565b5b613e22848285613ddb565b509392505050565b5f82601f830112613e3e57613e3d613d2b565b5b8135613e4e848260208601613de9565b91505092915050565b5f8060408385031215613e6d57613e6c6138dc565b5b5f613e7a85828601613a60565b925050602083013567ffffffffffffffff811115613e9b57613e9a6138e0565b5b613ea785828601613e2a565b9150509250929050565b613eba81613964565b8114613ec4575f80fd5b50565b5f81359050613ed581613eb1565b92915050565b5f8060408385031215613ef157613ef06138dc565b5b5f613efe85828601613b0d565b9250506020613f0f85828601613ec7565b9150509250929050565b5f80fd5b5f60608284031215613f3257613f31613f19565b5b613f3c6060613d91565b90505f613f4b84828501613ec7565b5f830152506020613f5e84828501613ec7565b6020830152506040613f7284828501613ec7565b60408301525092915050565b5f8060808385031215613f9457613f936138dc565b5b5f613fa185828601613a60565b9250506020613fb285828601613f1d565b9150509250929050565b5f67ffffffffffffffff821115613fd657613fd5613d33565b5b613fdf826139d9565b9050602081019050919050565b5f613ffe613ff984613fbc565b613d91565b90508281526020810184848401111561401a57614019613d2f565b5b614025848285613ddb565b509392505050565b5f82601f83011261404157614040613d2b565b5b8135614051848260208601613fec565b91505092915050565b5f805f8060808587031215614072576140716138dc565b5b5f61407f87828801613b0d565b945050602061409087828801613b0d565b93505060406140a187828801613a60565b925050606085013567ffffffffffffffff8111156140c2576140c16138e0565b5b6140ce8782880161402d565b91505092959194509250565b5f80604083850312156140f0576140ef6138dc565b5b5f6140fd85828601613b0d565b925050602061410e85828601613b0d565b9150509250929050565b7f4e487b71000000000000000000000000000000000000000000000000000000005f52602260045260245ffd5b5f600282049050600182168061415c57607f821691505b60208210810361416f5761416e614118565b5b50919050565b7f4552433732313a20617070726f76616c20746f2063757272656e74206f776e655f8201527f7200000000000000000000000000000000000000000000000000000000000000602082015250565b5f6141cf6021836139a1565b91506141da82614175565b604082019050919050565b5f6020820190508181035f8301526141fc816141c3565b9050919050565b7f4552433732313a20617070726f76652063616c6c6572206973206e6f7420746f5f8201527f6b656e206f776e6572206f7220617070726f76656420666f7220616c6c000000602082015250565b5f61425d603d836139a1565b915061426882614203565b604082019050919050565b5f6020820190508181035f83015261428a81614251565b9050919050565b7f4552433732313a2063616c6c6572206973206e6f7420746f6b656e206f776e655f8201527f72206f7220617070726f76656400000000000000000000000000000000000000602082015250565b5f6142eb602d836139a1565b91506142f682614291565b604082019050919050565b5f6020820190508181035f830152614318816142df565b9050919050565b7f4e487b71000000000000000000000000000000000000000000000000000000005f52601160045260245ffd5b5f61435682613a41565b915061436183613a41565b925082820261436f81613a41565b915082820484148315176143865761438561431f565b5b5092915050565b7f4e487b71000000000000000000000000000000000000000000000000000000005f52601260045260245ffd5b5f6143c482613a41565b91506143cf83613a41565b9250826143df576143de61438d565b5b828204905092915050565b7f4f6e6c7920424f545f524f4c452063616e206265206772616e74656420746f205f8201527f6e65772075736572732e00000000000000000000000000000000000000000000602082015250565b5f614444602a836139a1565b915061444f826143ea565b604082019050919050565b5f6020820190508181035f83015261447181614438565b9050919050565b7f54686520636572746966696361746520616c72656164792065786973747300005f82015250565b5f6144ac601e836139a1565b91506144b782614478565b602082019050919050565b5f6020820190508181035f8301526144d9816144a0565b9050919050565b5f81905092915050565b5f6144f482613997565b6144fe81856144e0565b935061450e8185602086016139b1565b80840191505092915050565b5f61452582856144ea565b915061453182846144ea565b91508190509392505050565b7f416363657373436f6e74726f6c3a2063616e206f6e6c792072656e6f756e63655f8201527f20726f6c657320666f722073656c660000000000000000000000000000000000602082015250565b5f614597602f836139a1565b91506145a28261453d565b604082019050919050565b5f6020820190508181035f8301526145c48161458b565b9050919050565b7f4552433732313a20696e76616c696420746f6b656e20494400000000000000005f82015250565b5f6145ff6018836139a1565b915061460a826145cb565b602082019050919050565b5f6020820190508181035f83015261462c816145f3565b9050919050565b7f4552433732313a2061646472657373207a65726f206973206e6f7420612076615f8201527f6c6964206f776e65720000000000000000000000000000000000000000000000602082015250565b5f61468d6029836139a1565b915061469882614633565b604082019050919050565b5f6020820190508181035f8301526146ba81614681565b9050919050565b7f496e737566666963656e7420616d6f756e7400000000000000000000000000005f82015250565b5f6146f56012836139a1565b9150614700826146c1565b602082019050919050565b5f6020820190508181035f830152614722816146e9565b9050919050565b7f546865204e465420616c726561647920657869737473000000000000000000005f82015250565b5f61475d6016836139a1565b915061476882614729565b602082019050919050565b5f6020820190508181035f83015261478a81614751565b9050919050565b5f6040820190506147a45f830185613acf565b81810360208301526147b681846139e9565b90509392505050565b5f815190506147cd81613eb1565b92915050565b5f602082840312156147e8576147e76138dc565b5b5f6147f5848285016147bf565b91505092915050565b5f6040820190508181035f83015261481681856139e9565b9050818103602083015261482a81846139e9565b90509392505050565b5f6060820190506148465f830186613acf565b818103602083015261485881856139e9565b9050818103604083015261486c81846139e9565b9050949350505050565b7f746f6b656e20646f6573206e6f742065786973740000000000000000000000005f82015250565b5f6148aa6014836139a1565b91506148b582614876565b602082019050919050565b5f6020820190508181035f8301526148d78161489e565b9050919050565b7f596f75277265206e6f7420616c6c6f77656420746f20757067726164652074685f8201527f697320746f6b656e2e0000000000000000000000000000000000000000000000602082015250565b5f6149386029836139a1565b9150614943826148de565b604082019050919050565b5f6020820190508181035f8301526149658161492c565b9050919050565b5f61497682613a41565b915061498183613a41565b92508282019050808211156149995761499861431f565b5b92915050565b7f596f752063616e7420757067726164652c2061726d6f72206973206d6178206c5f8201527f6576656c2e000000000000000000000000000000000000000000000000000000602082015250565b5f6149f96025836139a1565b9150614a048261499f565b604082019050919050565b5f6020820190508181035f830152614a26816149ed565b9050919050565b7f596f752063616e7420757067726164652c206865616467656172206973206d615f8201527f78206c6576656c2e000000000000000000000000000000000000000000000000602082015250565b5f614a876028836139a1565b9150614a9282614a2d565b604082019050919050565b5f6020820190508181035f830152614ab481614a7b565b9050919050565b7f596f752063616e7420757067726164652c206974656d206973206d6178206c655f8201527f76656c2e00000000000000000000000000000000000000000000000000000000602082015250565b5f614b156024836139a1565b9150614b2082614abb565b604082019050919050565b5f6020820190508181035f830152614b4281614b09565b9050919050565b7f596f752063616e7420757067726164652c207370656369616c206368617261635f8201527f7465722063616e742062652075706772616465642e0000000000000000000000602082015250565b5f614ba36035836139a1565b9150614bae82614b49565b604082019050919050565b5f6020820190508181035f830152614bd081614b97565b9050919050565b7f57726f6e6720616d6f756e742069732073656e742e00000000000000000000005f82015250565b5f614c0b6015836139a1565b9150614c1682614bd7565b602082019050919050565b5f6020820190508181035f830152614c3881614bff565b9050919050565b7f2d000000000000000000000000000000000000000000000000000000000000005f82015250565b5f614c736001836144e0565b9150614c7e82614c3f565b600182019050919050565b7f2e6a736f6e0000000000000000000000000000000000000000000000000000005f82015250565b5f614cbd6005836144e0565b9150614cc882614c89565b600582019050919050565b5f614cde82876144ea565b9150614ce982614c67565b9150614cf582866144ea565b9150614d0182856144ea565b9150614d0d82846144ea565b9150614d1882614cb1565b915081905095945050505050565b7f4552433732313a207472616e736665722066726f6d20696e636f7272656374205f8201527f6f776e6572000000000000000000000000000000000000000000000000000000602082015250565b5f614d806025836139a1565b9150614d8b82614d26565b604082019050919050565b5f6020820190508181035f830152614dad81614d74565b9050919050565b7f4552433732313a207472616e7366657220746f20746865207a65726f206164645f8201527f7265737300000000000000000000000000000000000000000000000000000000602082015250565b5f614e0e6024836139a1565b9150614e1982614db4565b604082019050919050565b5f6020820190508181035f830152614e3b81614e02565b9050919050565b7f45524337323155524953746f726167653a2055524920736574206f66206e6f6e5f8201527f6578697374656e7420746f6b656e000000000000000000000000000000000000602082015250565b5f614e9c602e836139a1565b9150614ea782614e42565b604082019050919050565b5f6020820190508181035f830152614ec981614e90565b9050919050565b5f819050815f5260205f209050919050565b5f6020601f8301049050919050565b5f82821b905092915050565b5f60088302614f2c7fffffffffffffffffffffffffffffffffffffffffffffffffffffffffffffffff82614ef1565b614f368683614ef1565b95508019841693508086168417925050509392505050565b5f819050919050565b5f614f71614f6c614f6784613a41565b614f4e565b613a41565b9050919050565b5f819050919050565b614f8a83614f57565b614f9e614f9682614f78565b848454614efd565b825550505050565b5f90565b614fb2614fa6565b614fbd818484614f81565b505050565b5b81811015614fe057614fd55f82614faa565b600181019050614fc3565b5050565b601f82111561502557614ff681614ed0565b614fff84614ee2565b8101602085101561500e578190505b61502261501a85614ee2565b830182614fc2565b50505b505050565b5f82821c905092915050565b5f6150455f198460080261502a565b1980831691505092915050565b5f61505d8383615036565b9150826002028217905092915050565b61507682613997565b67ffffffffffffffff81111561508f5761508e613d33565b5b6150998254614145565b6150a4828285614fe4565b5f60209050601f8311600181146150d5575f84156150c3578287015190505b6150cd8582615052565b865550615134565b601f1984166150e386614ed0565b5f5b8281101561510a578489015182556001820191506020850194506020810190506150e5565b868310156151275784890151615123601f891682615036565b8355505b6001600288020188555050505b505050505050565b7f4552433732313a20617070726f766520746f2063616c6c6572000000000000005f82015250565b5f6151706019836139a1565b915061517b8261513c565b602082019050919050565b5f6020820190508181035f83015261519d81615164565b9050919050565b7f4552433732313a207472616e7366657220746f206e6f6e2045524337323152655f8201527f63656976657220696d706c656d656e7465720000000000000000000000000000602082015250565b5f6151fe6032836139a1565b9150615209826151a4565b604082019050919050565b5f6020820190508181035f83015261522b816151f2565b9050919050565b7f416363657373436f6e74726f6c3a206163636f756e74200000000000000000005f82015250565b5f6152666017836144e0565b915061527182615232565b601782019050919050565b7f206973206d697373696e6720726f6c65200000000000000000000000000000005f82015250565b5f6152b06011836144e0565b91506152bb8261527c565b601182019050919050565b5f6152d08261525a565b91506152dc82856144ea565b91506152e7826152a4565b91506152f382846144ea565b91508190509392505050565b7f5061757361626c653a206e6f74207061757365640000000000000000000000005f82015250565b5f6153336014836139a1565b915061533e826152ff565b602082019050919050565b5f6020820190508181035f83015261536081615327565b9050919050565b7f5061757361626c653a20706175736564000000000000000000000000000000005f82015250565b5f61539b6010836139a1565b91506153a682615367565b602082019050919050565b5f6020820190508181035f8301526153c88161538f565b9050919050565b5f81519050919050565b5f82825260208201905092915050565b5f6153f3826153cf565b6153fd81856153d9565b935061540d8185602086016139b1565b615416816139d9565b840191505092915050565b5f6080820190506154345f830187613acf565b6154416020830186613acf565b61544e6040830185613c35565b818103606083015261546081846153e9565b905095945050505050565b5f815190506154798161390f565b92915050565b5f60208284031215615494576154936138dc565b5b5f6154a18482850161546b565b91505092915050565b7f4e487b71000000000000000000000000000000000000000000000000000000005f52603260045260245ffd5b5f6154e182613a41565b91505f82036154f3576154f261431f565b5b600182039050919050565b7f537472696e67733a20686578206c656e67746820696e73756666696369656e745f82015250565b5f6155326020836139a1565b915061553d826154fe565b602082019050919050565b5f6020820190508181035f83015261555f81615526565b9050919050565b7f4552433732313a206d696e7420746f20746865207a65726f20616464726573735f82015250565b5f61559a6020836139a1565b91506155a582615566565b602082019050919050565b5f6020820190508181035f8301526155c78161558e565b9050919050565b7f4552433732313a20746f6b656e20616c7265616479206d696e746564000000005f82015250565b5f615602601c836139a1565b915061560d826155ce565b602082019050919050565b5f6020820190508181035f83015261562f816155f6565b905091905056fea264697066735822122037599f2644147437c24755ae406a7e467e305b987fb05901797d2acb6b47a47164736f6c63430008150033",
  "immutableReferences": {},
  "source": "// SPDX-License-Identifier: MIT\npragma solidity ^0.8.9;\n\nimport \"@openzeppelin/contracts/token/ERC721/ERC721.sol\";\nimport \"@openzeppelin/contracts/token/ERC721/extensions/ERC721URIStorage.sol\";\nimport \"@openzeppelin/contracts/token/ERC721/extensions/ERC721Royalty.sol\";\nimport \"@openzeppelin/contracts/security/Pausable.sol\";\nimport \"@openzeppelin/contracts/access/AccessControl.sol\";\nimport \"@openzeppelin/contracts/utils/Strings.sol\";\nimport \"@openzeppelin/contracts/utils/Counters.sol\";\nimport \"./FGCertificate.sol\";\n\n\n\n/// @custom:security-contact alexandervardanyan1@gmail.com\ncontract ForestGuardians is ERC721, ERC721URIStorage, Pausable, AccessControl, ERC721Royalty {\n    using Counters for Counters.Counter;\n\n    bytes32 public constant BOT_ROLE = keccak256(\"BOT_ROLE\");\n    Counters.Counter private _tokenIdCounter;\n    \n    uint256 public mintPrice;\n    uint256 public upgradePrice;\n    uint256 public specialPrice;\n    FGCertificate certificate;\n    mapping(uint256 => bool) existingURIs;\n    mapping(uint256 => bool) specials;\n    mapping(uint256 => uint256) uris; // tokenId to ipfs json id\n    struct levelStruct {uint256 headgear; uint256 armor; uint256 item;}\n    mapping(uint256 => levelStruct) levels;\n    struct upgradeStruct {bool headgear; bool armor; bool item;}\n    event mintSuccess(address _owner, string nftURL, string certURL);\n    event upgradeSuccess(string newURL);\n\n    constructor(address _certificateAddress) ERC721(\"Forest Guardians\", \"FRG\") {\n        _grantRole(DEFAULT_ADMIN_ROLE, msg.sender);\n        _grantRole(BOT_ROLE, msg.sender);\n        certificate = FGCertificate(_certificateAddress);\n        ERC2981._setDefaultRoyalty(msg.sender, 10); // 10% fee\n        pause();\n    }\n\n    modifier beforeHideUnhide(uint256 tokenId, upgradeStruct memory data) {\n        require(uris[tokenId] != 0, \"token does not exist\");\n        require(ownerOf(tokenId) == msg.sender, \"You're not allowed to upgrade this token.\");\n        require(!(specials[uris[tokenId]]), \"You cant upgrade, special character cant be upgraded.\");\n        _;\n    }\n\n    modifier beforeUpgradeChecks(uint256 tokenId, upgradeStruct memory data) {\n        require(uris[tokenId] != 0, \"token does not exist\");\n        require(ownerOf(tokenId) == msg.sender, \"You're not allowed to upgrade this token.\");\n        require((levels[tokenId].armor + (data.armor ? 1 : 0) <= 3), \"You cant upgrade, armor is max level.\");\n        require((levels[tokenId].headgear + (data.headgear ? 1 : 0) <= 3), \"You cant upgrade, headgear is max level.\");\n        require((levels[tokenId].item + (data.item ? 1 : 0) <= 3), \"You cant upgrade, item is max level.\");\n        require(!(specials[uris[tokenId]]), \"You cant upgrade, special character cant be upgraded.\");\n        require((((data.armor ? 1 : 0) * levels[tokenId].armor) + ((data.headgear ? 1 : 0) * levels[tokenId].headgear) + ((data.item ? 1 : 0) * levels[tokenId].item)) * upgradePrice == msg.value, \"Wrong amount is sent.\");\n        _;\n    }\n\n    function grantRole(bytes32 role, address account) public override{\n        require(role == BOT_ROLE, \"Only BOT_ROLE can be granted to new users.\");\n        super.grantRole(role,account);\n    }\n\n    function setMintPrice(uint256 price) public onlyRole(DEFAULT_ADMIN_ROLE) {\n        mintPrice = price;\n    }\n\n    function setUpgradePrice(uint256 price) public onlyRole(DEFAULT_ADMIN_ROLE) {\n        upgradePrice = price;\n    }\n\n    function setSpecialPrice(uint256 price) public onlyRole(DEFAULT_ADMIN_ROLE) {\n        specialPrice = price;\n    }\n\n    function addSpecial(uint256 uri) public onlyRole(DEFAULT_ADMIN_ROLE){\n        specials[uri] = true;\n    }\n\n    function _baseURI() internal pure override returns (string memory) {\n        return \"https://ipfs.io/ipfs/\";\n    }\n\n    function pause() public onlyRole(DEFAULT_ADMIN_ROLE) {\n        _pause();\n    }\n\n    function unpause() public onlyRole(DEFAULT_ADMIN_ROLE) {\n        _unpause();\n    }\n\n    function upgrade(uint256 tokenId, upgradeStruct memory data) public payable beforeUpgradeChecks(tokenId, data) returns(bool) {\n        uint256 ImageN = uris[tokenId];\n        levelStruct memory current = levels[tokenId];\n        string memory ImageURI = string(abi.encodePacked(Strings.toString(ImageN), \"-\", Strings.toString((data.headgear ? 1 : 0) + current.headgear), Strings.toString((data.armor ? 1 : 0) + current.armor), Strings.toString((data.item ? 1 : 0) + current.item), \".json\"));\n        _setTokenURI(tokenId, ImageURI);\n        levels[tokenId] = levelStruct((data.headgear ? 1 : 0) + current.headgear,(data.armor ? 1 : 0) + current.armor ,(data.item ? 1 : 0) + current.item);\n        emit upgradeSuccess(string(abi.encodePacked(_baseURI(), ImageURI)));\n        return true;\n    }\n\n    function hideUnhide(uint256 tokenId, upgradeStruct memory data) public beforeHideUnhide(tokenId, data) returns(bool) {\n        uint256 ImageN = uris[tokenId];\n        levelStruct memory current = levels[tokenId];\n        string memory ImageURI = string(abi.encodePacked(Strings.toString(ImageN), \"-\", Strings.toString((data.headgear ? 1 : 0)*current.headgear), Strings.toString((data.armor ? 1 : 0)*current.armor), Strings.toString((data.item ? 1 : 0)*current.item), \".json\"));\n        _setTokenURI(tokenId, ImageURI);\n        emit upgradeSuccess(string(abi.encodePacked(_baseURI(), ImageURI)));\n        return true;\n    }\n\n    function mint(uint256 ImageN, string memory CertURI) public payable returns(bool){\n        require(msg.value >= (specials[ImageN] ? specialPrice : mintPrice), \"Insufficent amount\");\n        require(!existingURIs[ImageN], \"The NFT already exists\");\n        uint256 tokenId = _tokenIdCounter.current();\n        _tokenIdCounter.increment();\n        existingURIs[ImageN] = true;\n        uris[tokenId] = ImageN;\n        _safeMint(msg.sender, tokenId);\n        if(!specials[ImageN]){\n            levels[tokenId] = levelStruct(1,1,1);\n        }\n        string memory ImageURI = string(abi.encodePacked(Strings.toString(ImageN), specials[ImageN] ? \".json\" : \"-111.json\"));\n        _setTokenURI(tokenId, ImageURI);\n        if(certificate.mint(msg.sender, CertURI)){\n            emit mintSuccess(msg.sender, string(abi.encodePacked(_baseURI(), ImageURI)), string(abi.encode(_baseURI(), CertURI)));\n            return true;\n        }\n        return false;\n    }\n\n    function safeMint(uint256 ImageN) public onlyRole(DEFAULT_ADMIN_ROLE) returns(bool) {\n        require(!existingURIs[ImageN], \"The certificate already exists\");\n        uint256 tokenId = _tokenIdCounter.current();\n        _tokenIdCounter.increment();\n        existingURIs[ImageN] = true;\n        uris[tokenId] = ImageN;\n        _safeMint(msg.sender, tokenId);\n        if(!specials[ImageN]){\n            levels[tokenId] = levelStruct(1,1,1);\n        }\n        string memory ImageURI = string(abi.encodePacked(Strings.toString(ImageN), specials[ImageN] ? \".json\" : \"-111.json\"));\n        _setTokenURI(tokenId, ImageURI);\n        return true;\n    }\n\n    function _beforeTokenTransfer(address from, address to, uint256 tokenId, uint256 batchSize)\n        internal\n        whenNotPaused\n        override\n    {\n        super._beforeTokenTransfer(from, to, tokenId, batchSize);\n    }\n\n    // The following functions are overrides required by Solidity.\n\n    function _burn(uint256 tokenId) internal override(ERC721, ERC721URIStorage, ERC721Royalty) {\n        super._burn(tokenId);\n    }\n\n    function tokenURI(uint256 tokenId)\n        public\n        view\n        override(ERC721, ERC721URIStorage)\n        returns (string memory)\n    {\n        return super.tokenURI(tokenId);\n    }\n\n    function supportsInterface(bytes4 interfaceId)\n        public\n        view\n        override(ERC721, ERC721URIStorage, AccessControl, ERC721Royalty)\n        returns (bool)\n    {\n        return super.supportsInterface(interfaceId);\n    }\n}",
  "sourcePath": "/Users/alex/nft-corse/ftoken/contracts/ForestGuardians.sol",
  "compiler": {
    "name": "solc",
    "version": "0.8.21+commit.d9974bed.Emscripten.clang"
  },
  "schemaVersion": "3.4.16",
  "updatedAt": "2023-09-28T17:14:38.393Z",
  "networkType": "ethereum",
  "devdoc": {
    "custom:security-contact": "alexandervardanyan1@gmail.com",
    "events": {
      "Approval(address,address,uint256)": {
        "details": "Emitted when `owner` enables `approved` to manage the `tokenId` token."
      },
      "ApprovalForAll(address,address,bool)": {
        "details": "Emitted when `owner` enables or disables (`approved`) `operator` to manage all of its assets."
      },
      "BatchMetadataUpdate(uint256,uint256)": {
        "details": "This event emits when the metadata of a range of tokens is changed. So that the third-party platforms such as NFT market could timely update the images and related attributes of the NFTs."
      },
      "MetadataUpdate(uint256)": {
        "details": "This event emits when the metadata of a token is changed. So that the third-party platforms such as NFT market could timely update the images and related attributes of the NFT."
      },
      "Paused(address)": {
        "details": "Emitted when the pause is triggered by `account`."
      },
      "RoleAdminChanged(bytes32,bytes32,bytes32)": {
        "details": "Emitted when `newAdminRole` is set as ``role``'s admin role, replacing `previousAdminRole` `DEFAULT_ADMIN_ROLE` is the starting admin for all roles, despite {RoleAdminChanged} not being emitted signaling this. _Available since v3.1._"
      },
      "RoleGranted(bytes32,address,address)": {
        "details": "Emitted when `account` is granted `role`. `sender` is the account that originated the contract call, an admin role bearer except when using {AccessControl-_setupRole}."
      },
      "RoleRevoked(bytes32,address,address)": {
        "details": "Emitted when `account` is revoked `role`. `sender` is the account that originated the contract call:   - if using `revokeRole`, it is the admin role bearer   - if using `renounceRole`, it is the role bearer (i.e. `account`)"
      },
      "Transfer(address,address,uint256)": {
        "details": "Emitted when `tokenId` token is transferred from `from` to `to`."
      },
      "Unpaused(address)": {
        "details": "Emitted when the pause is lifted by `account`."
      }
    },
    "kind": "dev",
    "methods": {
      "approve(address,uint256)": {
        "details": "See {IERC721-approve}."
      },
      "balanceOf(address)": {
        "details": "See {IERC721-balanceOf}."
      },
      "getApproved(uint256)": {
        "details": "See {IERC721-getApproved}."
      },
      "getRoleAdmin(bytes32)": {
        "details": "Returns the admin role that controls `role`. See {grantRole} and {revokeRole}. To change a role's admin, use {_setRoleAdmin}."
      },
      "grantRole(bytes32,address)": {
        "details": "Grants `role` to `account`. If `account` had not been already granted `role`, emits a {RoleGranted} event. Requirements: - the caller must have ``role``'s admin role. May emit a {RoleGranted} event."
      },
      "hasRole(bytes32,address)": {
        "details": "Returns `true` if `account` has been granted `role`."
      },
      "isApprovedForAll(address,address)": {
        "details": "See {IERC721-isApprovedForAll}."
      },
      "name()": {
        "details": "See {IERC721Metadata-name}."
      },
      "ownerOf(uint256)": {
        "details": "See {IERC721-ownerOf}."
      },
      "paused()": {
        "details": "Returns true if the contract is paused, and false otherwise."
      },
      "renounceRole(bytes32,address)": {
        "details": "Revokes `role` from the calling account. Roles are often managed via {grantRole} and {revokeRole}: this function's purpose is to provide a mechanism for accounts to lose their privileges if they are compromised (such as when a trusted device is misplaced). If the calling account had been revoked `role`, emits a {RoleRevoked} event. Requirements: - the caller must be `account`. May emit a {RoleRevoked} event."
      },
      "revokeRole(bytes32,address)": {
        "details": "Revokes `role` from `account`. If `account` had been granted `role`, emits a {RoleRevoked} event. Requirements: - the caller must have ``role``'s admin role. May emit a {RoleRevoked} event."
      },
      "royaltyInfo(uint256,uint256)": {
        "details": "Returns how much royalty is owed and to whom, based on a sale price that may be denominated in any unit of exchange. The royalty amount is denominated and should be paid in that same unit of exchange."
      },
      "safeTransferFrom(address,address,uint256)": {
        "details": "See {IERC721-safeTransferFrom}."
      },
      "safeTransferFrom(address,address,uint256,bytes)": {
        "details": "See {IERC721-safeTransferFrom}."
      },
      "setApprovalForAll(address,bool)": {
        "details": "See {IERC721-setApprovalForAll}."
      },
      "symbol()": {
        "details": "See {IERC721Metadata-symbol}."
      },
      "transferFrom(address,address,uint256)": {
        "details": "See {IERC721-transferFrom}."
      }
    },
    "version": 1
  },
  "userdoc": {
    "kind": "user",
    "methods": {},
    "version": 1
  }
}